:06000E000419016E36002A
:0A0E2F00E4F58EF598F58902002025
:03002000C2AF224A
:030E4B00D2AF2201
:0300000002098C66
:0C098C00787FE4F6D8FD7581660209D37F
:020BB6008F238B
:100BB8007E037FE81201077C007D0C1200F5AB076D
:100BC800AA06E4F9F8AF1CAE1BAD1AAC19120BFA61
:100BD800C3E49FFFE49EFEE52370098F8A8E8CD2C2
:100BE8008CD2A922E523B401088F8B8E8DD28ED2A8
:010BF800AB51
:010BF90022D9
:100E190075985053890F438920758BF3758DF3C2EB
:060E2900ABD28ED2AC2218
:080003008F993099FDC299228A
:05001B00AE0702000326
:03000B00020A7F67
:100A7F00C0E0C0F0C083C082C0D075D000C000C03D
:100A8F0001C002C003C004C005C006C007E566244C
:100A9F0005F566E43565F565E43564F564E43563BD
:100AAF00F563753D00753E00753F137B007A007945
:100ABF000812080DD007D006D005D004D003D002FD
:0F0ACF00D001D000D0D0D082D083D0F0D0E03290
:03002300020B715C
:100B7100C0E0C0F0C083C082C0D075D000C000C04A
:0D0B810001C002C003C004C005C006C007CB
:0D0B8E00309805C298859958AF5812001B89
:100B9B00D007D006D005D004D003D002D001D000AE
:0B0BAB00D0D0D082D083D0F0D0E03258
:100DC300751C00751B1B751AB7751900120E2F12AF
:100DD3000CE9120E4B7B007A007908120CB580F5F2
:100D1B00535953636C6B3A31324D0D0A54494D3074
:100D2B005F5049543A31306D730D0A554152545F3F
:0C0D3B00424155443A323430300D0A0079
:100CE9007D0A7C00E4FF120BB6120E197BFF7A0D08
:100CF900791B1203EF7F647E007D007C00120E4297
:100D09007B007A007913120B297B007A007908029B
:020D19000C804C
:100E02004B6579426F6172645F3478345F696E69F1
:070E1200745F25640D0A0066
:100B29008B238A24892590000174011200D3900037
:100B39000274011200D390000474101200D39000C3
:100B49000374011200D390000574011200D3AB2382
:100B5900AA24A92590000112003FF5477BFF7A0ED0
:080B690079021203EF7F002264
:100D9E00E41200C17590F000000000E59064F012BE
:100DAE0000C175900F00000000E590640F12006CFA
:050DBE00120026FF22D7
:1006E9008B408A418942120D9EEF70030207DEABEF
:1006F90040AA41A94290000212003F70030207DE9E
:10070900900001740112008ED3940150030207DE98
:100719001200261201FB075311076F12078B1407EA
:10072900A718075A2107762207922407AE280761DE
:1007390041077D4207994407B448076881078482C5
:1007490007A08407BB88000007C2900004740180D9
:100759006D900004740280669000047403805F90B9
:100769000004740C805890000474048051900004B3
:100779007405804A90000474068043900004740D47
:10078900803C900004740780359000047408802E22
:1007990090000474098027900004740E8020900052
:1007A90004740A8019900004E48013900004740B07
:1007B900800C900004740F800590000474111200DD
:1007C900D3AB40AA41A942900002E41200D39000A1
:1007D90001E41200D3AB40AA41A9421200267016C7
:1007E900900002041200D3900001E41200D390009B
:1007F9000474101200D3AB40AA41A942900004121C
:04080900003FFF228B
:100DE3004E6F7420436F72726563742E0D0A000D8B
:0F0DF3000A003F065B4F666D7D077F6F77734089
:060C80008B238A24892564
:100C8600E4FF90000A041200D3900008E41200D397
:100C960090000974011200D3AB23AA24A9258F82E0
:0E0CA600758300740C1200D30FBF08EC7F00A2
:010CB400221D
:080E39007F027EEFDEFEDFFC0C
:010E4100228E
:060CB5008B238A2489252F
:100CBB00E4FDED1392A2EDA2E192A3A2E292A4AB0A
:100CCB0023AA24A925F58275830012003F900DF508
:0D0CDB0093F580120E39E4F5800DBD08D5AB
:010CE80022E9
:060ADE008B408A418942B1
:100AE400E4FF9000091200D390000812003F703414
:100AF400AB40AA41A9428F8275830012003FB40C17
:100B04000B8F82758300ED1200D380040FBF08E0C1
:100B1400EFC39407400EAB40AA41A9429000087469
:040B2400011200D3E7
:010B280022AA
:100C3E007F08900008E41200D390000912003F7064
:100C4E0030EF7C0024FFF582EC34FFF58312003F79
:100C5E00640C6011EF24FFF582EC34FFF583740C05
:100C6E001200D38002DFDAEF700790000904120041
:010C7E00D3A2
:010C7F002252
:0608FC008B408A41894295
:10090200E4F54390000812003F70087BFF7A0D79EE
:10091200E38073E543C394085066AB40AA41A94201
:1009220085438275830012003FB40A00504E90093D
:1009320037F828287302095502095902095D02098C
:100942006102096502096902096D020971020975EC
:100952000209797F3080227F31801E7F32801A7FA8
:100962003380167F3480127F35800E7F36800A7F77
:100972003780067F3880027F3912001B054380933F
:090982007BFF7A0D79F21203EFFC
:01098B002249
:060D73008B408A41894219
:100D7900E4FF9000081200D390000974011200D317
:100D8900AB40AA41A9428F82758300740C1200D32B
:040D99000FBF08EC94
:010D9D002233
:060014000463000000007F
:100D47008F268E258D248C23AF66AE65AD64AC638C
:100D570012019DAF26AE25AD24AC239000041201ED
:0C0D6700B790000974011200D37F002235
:100A18008B408A41894290000412016D1201DBC3A8
:100A2800E5669BFBE5659AFAE56499F9E56398F84C
:100A3800C312015C401EAF66AE65AD64AC63AB40EB
:100A4800AA41A94212019DAB40AA41A942900008BF
:100A580074018012AB40AA41A94290000812003FDD
:100A68006007900008E41200D3AB40AA41A9429065
:070A7800000812003FFF22FD
:090E42007B007A007959020D478A
:10080D008B3A8A3B893CAB3DAA3EA93F1206E900D3
:10081D00000000000000007B007A007959120A18D0
:10082D00EF70030208FBAB3DAA3EA93F90000412F6
:10083D00003FB40F0040030208FB90084EF8282833
:10084D007302087B02088502088F0208990208A32B
:10085D000208AD0208B70208C10208CB0208D50292
:10086D0008FB0208FB0208E90208F20208E0AB3AB5
:10087D00AA3BA93CE4FD8058AB3AAA3BA93C7D01BB
:10088D00804EAB3AAA3BA93C7D028044AB3AAA3BD1
:10089D00A93C7D03803AAB3AAA3BA93C7D0480304C
:1008AD00AB3AAA3BA93C7D058026AB3AAA3BA93CB5
:1008BD007D06801CAB3AAA3BA93C7D078012AB3A62
:1008CD00AA3BA93C7D088008AB3AAA3BA93C7D090F
:1008DD00020ADEAB3AAA3BA93C020C3EAB3AAA3B5C
:0F08ED00A93C0208FCAB3AAA3BA93C120D7322AE
:10099800020DC3E493A3F8E493A34003F68001F2A5
:1009A80008DFF48029E493A3F85407240CC8C33360
:1009B800C4540F4420C8834004F456800146F6DF2F
:1009C800E4800B010204081020408090000EE47EB1
:1009D800019360BCA3FF543F30E509541FFEE49324
:1009E800A360010ECF54C025E060A840B8E493A3EB
:1009F800FAE493A3F8E493A3C8C582C8CAC583CA16
:100A0800F0A3C8C582C8CAC583CADFE9DEE780BECD
:01001A0000E5
:10002600BB010689828A83E0225002E722BBFE02D8
:09003600E32289828A83E493220B
:10003F00BB010CE58229F582E5833AF583E0225076
:10004F0006E92582F8E622BBFE06E92582F8E222C0
:0D005F00E58229F582E5833AF583E49322DA
:10006C00BB010989828A83F8E028F022500327F724
:10007C0022BBFE05F8E328F3228A838982F8E493F5
:02008C00282228
:10008E00BB010FF8E58229F582E5833AF583E02876
:10009E00F0225009C58229F8E58226F622BBFE0918
:1000AE00C58229F8E22582F222F8EA2583F583E952
:0300BE0093282262
:1000C100BB010689828A83F0225002F722BBFE011E
:0200D100F32218
:1000D300F8BB010DE58229F582E5833AF583E8F063
:1000E300225006E92582C8F622BBFE05E92582C80F
:0200F300F222F7
:1000F500EF8DF0A4A8F0CF8CF0A428CE8DF0A42E1F
:02010500FE22D8
:10010700BC000BBE0029EF8DF084FFADF022E4CCDC
:10011700F875F008EF2FFFEE33FEEC33FCEE9DECA5
:10012700984005FCEE9DFE0FD5F0E9E4CEFD22EDEB
:10013700F8F5F0EE8420D21CFEADF075F008EF2F35
:10014700FFED33FD4007985006D5F0F222C398FD26
:050157000FD5F0EA22C3
:100BFA00C2D5E830E70FB2D5E4C39BFBE49AFAE426
:100C0A0099F9E498F8EC30E717B2D5120C301202D1
:100C1A005DE4C39BFBE49AFAE499F9E498F880034B
:100C2A0012025D30D50DE4C39FFFE49EFEE49DFDF4
:040C3A00E49CFC2218
:10015C00EB9FF5F0EA9E42F0E99D42F0E89C45F0F9
:01016C002270
:10016D00BB010DE58229F582E5833AF5830202FB99
:10017D005007E92582F80202EFBBFE07E92582F858
:10018D00020307E58229F582E5833AF5830203131D
:10019D00BB010789828A830203655005E9F80203D2
:0A01AD0059BBFE05E9F802037122B8
:1001B700BB010DE58229F582E5833AF583020365E4
:1001C7005007E92582F8020359BBFE07E92582F8A3
:0401D700020371228C
:1001DB00BB010789828A830203305005E9F80203C9
:1001EB0023BBFE05E9F802033C89828A830203499B
:1001FB00D083D082F8E4937012740193700DA3A393
:10020B0093F8740193F5828883E4737402936860A6
:06021B00EFA3A3A380DFA6
:10038D00E5532447F8E605532278443010027847A8
:10039D00E475F00112037D0200262009EB7F2ED2B9
:1003AD00098018EF540F2490D43440D4FF300D0B36
:1003BD00EF24BFB41A0050032461FFE55460021509
:1003CD00540557E5577002055630100D7844E47505
:1003DD00F00112037DEF0200C102001B7403D21065
:1003ED008003E4C210F5538B448A458946E4F554E5
:1003FD00F556F557E55460077F201203C880F57553
:10040D0055FFC20AC209C20BC20CC20EC20FC211E5
:10041D00120396FF700D3010057F001203D9AF57F0
:10042D00AE5622B4255FC2D5C20D120396FF24D05D
:10043D00B40A00501A75F00A785430D50508B6FF85
:10044D000106C6A426F620D5047002D20C80D9244C
:10045D00CFB41A00EF5004C2E5D20D0205D9D20A6D
:10046D0080C6D20980C0D20B80BCD2D580BAD20E44
:10047D0080B47F201203C8200B077401B5540040CF
:10048D00F112038DFF1203C8020401D211D20F80A5
:10049D009512038DFB12038DFA12038DF94A4B70E1
:1004AD000679AA7A067BFF200B2EE554602A7E0082
:1004BD008E8275830012003F60060EEE655570F05A
:1004CD00C2D5EBC0E0EAC0E0E9C0E0EE120620D0F4
:1004DD00E0F9D0E0FAD0E0FB120026FF60AAEBC0F5
:1004ED00E0EAC0E0E9C0E01203C8D0E02401F9D091
:1004FD00E03400FAD0E0FBE5550460DCD555D98039
:10050D00877BFF7A06791CD20B809C79108002794B
:10051D0008C20FC2118008D2D5790A8004790AC2A7
:10052D00D5E555047002F555E4FAFDFEFF12038D75
:10053D00FC7B08200A1312038DFD7B1030090A1273
:10054D00038DFE12038DFF7B20EC3382D592D550A7
:10055D0013C3E43009069FFFE49EFEE4200A039DC9
:10056D00FDE49CFCE4CBF8C20AEC700CCFCECDCCF4
:10057D00E824F8F870F38017C3EF33FFEE33FEED88
:10058D0033FDEC33FCEB33FB994002FB0FD8E9EB69
:10059D00300A05F8D0E0C448B20AC0E00AEC4D4E6E
:1005AD004F78207B0070C2EAB5550040BCC0E01208
:1005BD000622D0F0D0E0200A04C4C0E0C4B20AC0C4
:1005CD00F01203B1D0F0D5F0EB0204011201FB04DF
:1005DD009E53051858046F4C046B42051C4F05249F
:0F05ED0044052449048443052A55050E46050E8E
:1005FC0045050E4706CA5004732D04772E049A2B1A
:10060C00047B2304982006B32A0433480000049288
:10061C003F3F3F00790AA2D5200C14300E09B910C7
:10062C00020404B9080104A2D5200F0250010420D1
:10063C000B68920BB554005034C0E07F20300C197D
:10064C007F30A20B720F720E500F120679C20BC2C2
:10065C000FC20EC2117F30800F300E03E9C0E012C2
:10066C0003C8300E03D0E0F9D0E0B554CC300E17EF
:10067C007F30B9100C1203C87F58300D077F78807B
:10068C0003B908031203C8300B057F2D0203C87F82
:10069C00202011F87F2B200FF322920B80CF286E95
:1006AC00756C6C2900D20A12038D300AF8C20A78D4
:1006BC005430D50108F60204332D50434958120327
:1006CC008D2403B405004001E49006C5931203B9D0
:0D06DC00743A1203B9D20C755404020518CB
:1002210075F008758200EF2FFFEE33FECD33CDCC94
:1002310033CCC58233C5829BED9AEC99E582984017
:100241000CF582EE9BFEED9AFDEC99FC0FD5F0D6F4
:10025100E4CEFBE4CDFAE4CCF9A88222B800C1B91E
:100261000059BA002DEC8BF084CFCECDFCE5F0CB5C
:10027100F97818EF2FFFEE33FEED33FDEC33FCEB95
:1002810033FB10D703994004EB99FB0FD8E5E4F950
:10029100FA227818EF2FFFEE33FEED33FDEC33FC3D
:1002A100C933C910D7059BE99A4007EC9BFCE99A31
:1002B100F90FD8E0E4C9FAE4CCFB2275F010EF2F76
:1002C100FFEE33FEED33FDCC33CCC833C810D70776
:1002D1009BEC9AE899400AED9BFDEC9AFCE899F8B1
:0E02E1000FD5F0DAE4CDFBE4CCFAE4C8F92244
:0C02EF00E6FC08E6FD08E6FE08E6FF223B
:0C02FB00E0FCA3E0FDA3E0FEA3E0FF2276
:0C030700E2FC08E2FD08E2FE08E2FF2232
:10031300E493FC740193FD740293FE740393FF2230
:0D032300E6FB08E6F908E6FA08E6CBF8224A
:0C033000E0F8A3E0F9A3E0FAA3E0FB2250
:0D033C00E2FB08E2F908E2FA08E2CBF82241
:10034900E493F8740193F9740293FA740393FB220A
:0C035900ECF608EDF608EEF608EFF622D0
:0C036500ECF0A3EDF0A3EEF0A3EFF0220B
:0C037100ECF208EDF208EEF208EFF222C8
:10037D00FAE6FB0808E6F925F0F618E6CA3AF62281
:00000001FF
