:06031F000408016E360027
:0A032A00E4F58EF598F5890203341E
:03033400C2AF2233
:03033700D2AF2220
:0300000002015B9F
:0C015B00787FE4F6D8FD75810E0201A249
:04032500020C0000C6
:03000B000201E708
:1001E700C0E0C0F0C083C082C0D075D000C000C0DE
:0D01F70001C002C003C004C005C006C0075F
:10020400740A250DF50DE4350CF50CE50DB4E81272
:10021400E50CB4030D750C00750D00B2A07F4612F9
:020224000003D5
:10022600D007D006D005D004D003D002D001D0002C
:0B023600D0D0D082D083D0F0D0E032D6
:03002300020306CF
:07030600C0D075D000C00754
:0D030D00C298AF99B2A18F993099FDC299A5
:05031A00D007D0D03235
:1002C900750B00750A3675096E75080112032A7DCA
:1002D9000A7C00E4FF12024112000E12033780FE6D
:020241008F0E1E
:100243007E037FE81200387C007D0C120026AB078A
:10025300AA06E4F9F8AF0BAE0AAD09AC08120285A1
:10026300C3E49FFFE49EFEE50E70098F8A8E8CD255
:100273008CD2A922E50EB401088F8B8E8DD28ED23B
:01028300ABCF
:010284002257
:1002E900EF14600E047015E4F58AF58C438904D285
:0D02F9008C22E4F58BF58D438940D28E22D6
:10000E0075985053890F438920758BF3758DF3C204
:04001E00ABD28E22B1
:080003008F993099FDC299228A
:100167000202C9E493A3F8E493A34003F68001F2E3
:1001770008DFF48029E493A3F85407240CC8C33399
:10018700C4540F4420C8834004F456800146F6DF68
:10019700E4800B010204081020408090031FE47ED6
:1001A700019360BCA3FF543F30E509541FFEE4935D
:1001B700A360010ECF54C025E060A840B8E493A324
:1001C700FAE493A3F8E493A3C8C582C8CAC583CA4F
:1001D700F0A3C8C582C8CAC583CADFE9DEE780BE07
:0103290000D3
:10002600EF8DF0A4A8F0CF8CF0A428CE8DF0A42EEE
:02003600FE22A8
:10003800BC000BBE0029EF8DF084FFADF022E4CCAC
:10004800F875F008EF2FFFEE33FEEC33FCEE9DEC75
:10005800984005FCEE9DFE0FD5F0E9E4CEFD22EDBB
:10006800F8F5F0EE8420D21CFEADF075F008EF2F05
:10007800FFED33FD4007985006D5F0F222C398FDF6
:050088000FD5F0EA2293
:10028500C2D5E830E70FB2D5E4C39BFBE49AFAE4A4
:1002950099F9E498F8EC30E717B2D51202BB1200D1
:1002A500C9E4C39BFBE49AFAE499F9E498F880035E
:1002B5001200C930D50DE4C39FFFE49EFEE49DFD09
:0402C500E49CFC2297
:10008D0075F008758200EF2FFFEE33FECD33CDCC2A
:10009D0033CCC58233C5829BED9AEC99E5829840AD
:1000AD000CF582EE9BFEED9AFDEC99FC0FD5F0D68A
:1000BD00E4CEFBE4CDFAE4CCF9A88222B800C1B9B4
:1000CD000059BA002DEC8BF084CFCECDFCE5F0CBF2
:1000DD00F97818EF2FFFEE33FEED33FDEC33FCEB2B
:1000ED0033FB10D703994004EB99FB0FD8E5E4F9E6
:1000FD00FA227818EF2FFFEE33FEED33FDEC33FCD3
:10010D00C933C910D7059BE99A4007EC9BFCE99AC6
:10011D00F90FD8E0E4C9FAE4CCFB2275F010EF2F0B
:10012D00FFEE33FEED33FDCC33CCC833C810D7070B
:10013D009BEC9AE899400AED9BFDEC9AFCE899F846
:0E014D000FD5F0DAE4CDFBE4CCFAE4C8F922D9
:00000001FF
