:06000E00040800000000E0
:0A02AD00E4F58EF598F589020003D0
:03000300C2AF2267
:03000600D2AF2254
:03000000020153A7
:0C015300787FE4F6D8FD75810E02019A59
:04001400020C0000DA
:03000B0002026787
:04026700C0E0C0D063
:10026B007405250DF50DE4350CF50CE50DB4E80D15
:0D027B00E50CB40308750C00750D00B2A071
:05028800D0D0D0E032EF
:03001B00020009D7
:0100090032C4
:10028D001202AD7D057C00E4FF1201DFD2AF80FECE
:10029D00438901758CFC758A18D2A9D2AFD28C22F4
:0201DF008F0E81
:1001E1007E037FE81200307C007D0C12001EAB07FD
:1001F100AA06E4F9F8AF0BAE0AAD09AC0812022366
:10020100C3E49FFFE49EFEE50E70098F8A8E8CD2B7
:100211008CD2A922E50EB401088F8B8E8DD28ED29D
:01022100AB31
:0102220022B9
:10015F0002028DE493A3F8E493A34003F68001F227
:10016F0008DFF48029E493A3F85407240CC8C333A1
:10017F00C4540F4420C8834004F456800146F6DF70
:10018F00E4800B010204081020408090000EE47EF2
:10019F00019360BCA3FF543F30E509541FFEE49365
:1001AF00A360010ECF54C025E060A840B8E493A32C
:1001BF00FAE493A3F8E493A3C8C582C8CAC583CA57
:1001CF00F0A3C8C582C8CAC583CADFE9DEE780BE0F
:0100180000E7
:10001E00EF8DF0A4A8F0CF8CF0A428CE8DF0A42EF6
:02002E00FE22B0
:10003000BC000BBE0029EF8DF084FFADF022E4CCB4
:10004000F875F008EF2FFFEE33FEEC33FCEE9DEC7D
:10005000984005FCEE9DFE0FD5F0E9E4CEFD22EDC3
:10006000F8F5F0EE8420D21CFEADF075F008EF2F0D
:10007000FFED33FD4007985006D5F0F222C398FDFE
:050080000FD5F0EA229B
:10022300C2D5E830E70FB2D5E4C39BFBE49AFAE406
:1002330099F9E498F8EC30E717B2D5120259120095
:10024300C1E4C39BFBE49AFAE499F9E498F88003C8
:100253001200C130D50DE4C39FFFE49EFEE49DFD73
:04026300E49CFC22F9
:1000850075F008758200EF2FFFEE33FECD33CDCC32
:1000950033CCC58233C5829BED9AEC99E5829840B5
:1000A5000CF582EE9BFEED9AFDEC99FC0FD5F0D692
:1000B500E4CEFBE4CDFAE4CCF9A88222B800C1B9BC
:1000C5000059BA002DEC8BF084CFCECDFCE5F0CBFA
:1000D500F97818EF2FFFEE33FEED33FDEC33FCEB33
:1000E50033FB10D703994004EB99FB0FD8E5E4F9EE
:1000F500FA227818EF2FFFEE33FEED33FDEC33FCDB
:10010500C933C910D7059BE99A4007EC9BFCE99ACE
:10011500F90FD8E0E4C9FAE4CCFB2275F010EF2F13
:10012500FFEE33FEED33FDCC33CCC833C810D70713
:100135009BEC9AE899400AED9BFDEC9AFCE899F84E
:0E0145000FD5F0DAE4CDFBE4CCFAE4C8F922E1
:00000001FF
