:06000E00040D016E360036
:0A001900E4F58EF598F589020A4B14
:030A4B00C2AF2215
:030A4E00D2AF2202
:0300000002079E56
:0C079E00787FE4F6D8FD7581510207E574
:0208CB008F2379
:1008CD007E037FE81204637C007D0C120451AB079C
:1008DD00AA06E4F9F8AF10AE0FAD0EAC0D12090F6C
:1008ED00C3E49FFFE49EFEE52370098F8A8E8CD2B0
:1008FD008CD2A922E523B401088F8B8E8DD28ED296
:01090D00AB3E
:01090E0022C6
:100A300075985053890F438920758BF3758DF3C2D8
:060A4000ABD28ED2AC2205
:080003008F993099FDC299228A
:050A4600AE07020003F1
:0400140002110000D5
:03000B0002082ABE
:10082A00C0E0C0F0C083C082C0D075D000C000C094
:0D083A0001C002C003C004C005C006C00715
:10084700740A2512F512E43511F5117B007A007947
:10085700081205BCE512B4E80BE511B403067511DF
:040867000075120006
:10086B00D007D006D005D004D003D002D001D000E1
:0B087B00D0D0D082D083D0F0D0E0328B
:030023000208864A
:10088600C0E0C0F0C083C082C0D075D000C000C038
:0D08960001C002C003C004C005C006C007B9
:0D08A300309805C298859951AF51120A4650
:1008B000D007D006D005D004D003D002D001D0009C
:0B08C000D0D0D082D083D0F0D0E03246
:100A1900751000750F1B750EB7750D0012001912B0
:070A290009E1120A4E80FEF4
:10099000535953636C6B3A31324D0D0A54494D3003
:1009A0005F5049543A31306D730D0A554152545FCE
:0C09B000424155443A323430300D0A0008
:1009E1007D0A7C00E4FF1208CB120A307BFF7A09F2
:0E09F10079901200887B007A00790802095381
:1009FF004B6579426F6172645F3478345F696E69F9
:0A0A0F00745F25640D0A000D0A0053
:100953008B238A248925900001740112042F9000AF
:1009630002740112042F900003741012042F9000DC
:1009730004740112042FAB23AA24A92590000112A9
:0D098300039BF5407BFF7A0979FF02008895
:1009BC00E412041D7590F000000000E59064F01244
:1009CC00041D75900F00000000E590640F1203C821
:0509DC00120382FF225E
:1005BC008B3A8A3B893C1209BCEF7003020777AB7C
:1005CC003AAA3BA93C90000212039B7003020777E6
:1005DC0090000174011203EAD394015003020777CF
:1005EC001203821204B8062611066C1206B8140700
:1005FC000018063321067F2206CA24071228064655
:10060C004106924206DC4407234806598106A5821E
:10061C0006EE840735880000074A90000374011227
:10062C00042F7F31020745AB3AAA3BA93C9000034B
:10063C00740212042F7F32020745AB3AAA3BA93C45
:10064C00900003740312042F7F33020745AB3AAAC0
:10065C003BA93C900003740C12042F7F4402074505
:10066C00AB3AAA3BA93C900003740412042F7F34CC
:10067C00020745AB3AAA3BA93C900003740512044F
:10068C002F7F35020745AB3AAA3BA93C9000037477
:10069C000612042F7F36020745AB3AAA3BA93C90C1
:1006AC000003740D12042F7F48020745AB3AAA3B96
:1006BC00A93C900003740712042F7F37807BAB3A60
:1006CC00AA3BA93C900003740812042F7F38806960
:1006DC00AB3AAA3BA93C900003740912042F7F3952
:1006EC008057AB3AAA3BA93C900003740E12042F1E
:1006FC007F428045AB3AAA3BA93C900003740A1296
:10070C00042F7F2A8033AB3AAA3BA93C900003E428
:10071C0012042F7F308022AB3AAA3BA93C900003F5
:10072C00740B12042F7F238010AB3AAA3BA93C9088
:10073C000003740F12042F7F52120A46800EAB3A3C
:10074C00AA3BA93C900003741012042F7BFF7A0A79
:10075C007916120088B2A0AB3AAA3BA93C900002D1
:10076C00E412042F900001E412042FAB3AAA3BA927
:10077C003C120382700E9000020412042F900001B0
:10078C00E412042FAB3AAA3BA93C90000312039B42
:02079C00FF223A
:1007AA00020A19E493A3F8E493A34003F68001F242
:1007BA0008DFF48029E493A3F85407240CC8C33350
:1007CA00C4540F4420C8834004F456800146F6DF1F
:1007DA00E4800B010204081020408090000EE47EA1
:1007EA00019360BCA3FF543F30E509541FFEE49314
:1007FA00A360010ECF54C025E060A840B8E493A3DB
:10080A00FAE493A3F8E493A3C8C582C8CAC583CA05
:10081A00F0A3C8C582C8CAC583CADFE9DEE780BEBD
:0100180000E7
:10038200BB010689828A83E0225002E722BBFE0279
:09039200E32289828A83E49322AC
:10039B00BB010CE58229F582E5833AF583E0225017
:1003AB0006E92582F8E622BBFE06E92582F8E22261
:0D03BB00E58229F582E5833AF583E493227B
:1003C800BB010989828A83F8E028F022500327F7C5
:1003D80022BBFE05F8E328F3228A838982F8E49396
:0203E8002822C9
:1003EA00BB010FF8E58229F582E5833AF583E02817
:1003FA00F0225009C58229F8E58226F622BBFE09B9
:10040A00C58229F8E22582F222F8EA2583F583E9F2
:03041A0093282202
:10041D00BB010689828A83F0225002F722BBFE01BE
:02042D00F322B8
:10042F00F8BB010DE58229F582E5833AF583E8F003
:10043F00225006E92582C8F622BBFE05E92582C8AF
:02044F00F22297
:10045100EF8DF0A4A8F0CF8CF0A428CE8DF0A42EBF
:02046100FE2279
:10046300BC000BBE0029EF8DF084FFADF022E4CC7D
:10047300F875F008EF2FFFEE33FEEC33FCEE9DEC46
:10048300984005FCEE9DFE0FD5F0E9E4CEFD22ED8C
:10049300F8F5F0EE8420D21CFEADF075F008EF2FD6
:1004A300FFED33FD4007985006D5F0F222C398FDC7
:0504B3000FD5F0EA2264
:10090F00C2D5E830E70FB2D5E4C39BFBE49AFAE413
:10091F0099F9E498F8EC30E717B2D51209451205AA
:10092F001AE4C39BFBE49AFAE499F9E498F880037C
:10093F0012051A30D50DE4C39FFFE49EFEE49DFD22
:04094F00E49CFC2206
:1004B800D083D082F8E4937012740193700DA3A3D3
:1004C80093F8740193F5828883E4737402936860E7
:0604D800EFA3A3A380DFE7
:10002600E54C2440F8E6054C22783D301002784035
:10003600E475F0011205AC0203822009EB7F2ED293
:10004600098018EF540F2490D43440D4FF300D0BA0
:10005600EF24BFB41A0050032461FFE54D6002157A
:100066004D0550E5507002054F30100D783DE47592
:10007600F0011205ACEF02041D020A467403D21009
:100086008003E4C210F54C8B3D8A3E893FE4F54D72
:10009600F54FF550E54D60077F2012006180F5753C
:1000A6004EFFC20AC209C20BC20CC20EC20FC21157
:1000B60012002FFF700D3010057F00120072AF5036
:1000C600AE4F22B4255FC2D5C20D12002FFF24D039
:1000D600B40A00501A75F00A784D30D50508B6FFF7
:1000E6000106C6A426F620D5047002D20C80D924B7
:1000F600CFB41A00EF5004C2E5D20D020272D20A42
:1001060080C6D20980C0D20B80BCD2D580BAD20EAE
:1001160080B47F20120061200B077401B54D0040AA
:10012600F1120026FF12006102009AD211D20F804E
:1001360095120026FB120026FA120026F94A4B7089
:100146000679437A037BFF200B2EE54D602A7E005D
:100156008E8275830012039B60060EEE654E70F06C
:10016600C2D5EBC0E0EAC0E0E9C0E0EE1202B9D0C9
:10017600E0F9D0E0FAD0E0FB120382FF60AAEBC000
:10018600E0EAC0E0E9C0E0120061D0E02401F9D065
:10019600E03400FAD0E0FBE54E0460DCD54ED980B1
:1001A600877BFF7A0279B5D20B809C791080027921
:1001B60008C20FC2118008D2D5790A8004790AC212
:1001C600D5E54E047002F54EE4FAFDFEFF12002658
:1001D600FC7B08200A13120026FD7B1030090A1248
:1001E6000026FE120026FF7B20EC3382D592D550E6
:1001F60013C3E43009069FFFE49EFEE4200A039D34
:10020600FDE49CFCE4CBF8C20AEC700CCFCECDCC5E
:10021600E824F8F870F38017C3EF33FFEE33FEEDF2
:1002260033FDEC33FCEB33FB994002FB0FD8E9EBD3
:10023600300A05F8D0E0C448B20AC0E00AEC4D4ED8
:100246004F78207B0070C2EAB54E0040BCC0E01279
:1002560002BBD0F0D0E0200A04C4C0E0C4B20AC099
:10026600F012004AD0F0D5F0EB02009A1204B80161
:10027600375301B15801084C01044201B54F01BD85
:0F0286004401BD49011D4301C35501A74601A70E
:100295004501A747036350010C2D01102E01332B97
:1002A500011423013120034C2A00CC480000012B06
:1002B5003F3F3F00790AA2D5200C14300E09B91032
:1002C500020404B9080104A2D5200F02500104203C
:1002D5000B68920BB54D005034C0E07F20300C19EF
:1002E5007F30A20B720F720E500F120312C20BC297
:1002F5000FC20EC2117F30800F300E03E9C0E0122D
:100305000061300E03D0E0F9D0E0B54DCC300E17CA
:100315007F30B9100C1200617F58300D077F78804F
:1003250003B90803120061300B057F2D0200617FC0
:10033500202011F87F2B200FF322920B80CF286EFF
:10034500756C6C2900D20A120026300AF8C20A78A8
:100355004D30D50108F60200CC2D50434958120006
:10036500262403B405004001E490035E9312005275
:0D037500743A120052D20C754D040201B111
:1004DE0075F008758200EF2FFFEE33FECD33CDCCD5
:1004EE0033CCC58233C5829BED9AEC99E582984058
:1004FE000CF582EE9BFEED9AFDEC99FC0FD5F0D635
:10050E00E4CEFBE4CDFAE4CCF9A88222B800C1B95E
:10051E000059BA002DEC8BF084CFCECDFCE5F0CB9C
:10052E00F97818EF2FFFEE33FEED33FDEC33FCEBD5
:10053E0033FB10D703994004EB99FB0FD8E5E4F990
:10054E00FA227818EF2FFFEE33FEED33FDEC33FC7D
:10055E00C933C910D7059BE99A4007EC9BFCE99A71
:10056E00F90FD8E0E4C9FAE4CCFB2275F010EF2FB6
:10057E00FFEE33FEED33FDCC33CCC833C810D707B6
:10058E009BEC9AE899400AED9BFDEC9AFCE899F8F1
:0E059E000FD5F0DAE4CDFBE4CCFAE4C8F92284
:1005AC00FAE6FB0808E6F925F0F618E6CA3AF62250
:00000001FF
