:060CBA000418016E360073
:0A000E00E4F58EF598F589020D1156
:030D1100C2AF224C
:030D1400D2AF2239
:030000000208D122
:0C08D100787FE4F6D8FD75815A02091802
:020B02008F2240
:100B04007E037FE81201077C007D0C1200F5AB0721
:100B1400AA06E4F9F8AF1BAE1AAD19AC18120B46CD
:100B2400C3E49FFFE49EFEE52270098F8A8E8CD277
:100B34008CD2A922E522B401088F8B8E8DD28ED25D
:010B4400AB05
:010B4500228D
:100CED0075985053890F438920758BF3758DF3C219
:060CFD00ABD28ED2AC2246
:080003008F993099FDC299228A
:050D0C00AE0702000328
:03000B000209C423
:1009C400C0E0C0F0C083C082C0D075D000C000C0F9
:1009D40001C002C003C004C005C006C007E51F244F
:1009E40005F51FE4351EF51EE4351DF51DE4351C23
:1009F400F51C753C00753D00753E127B007A00794C
:100A04000812080CD007D006D005D004D003D002B9
:0F0A1400D001D000D0D0D082D083D0F0D0E0324B
:03002300020ABD11
:100ABD00C0E0C0F0C083C082C0D075D000C000C0FF
:0D0ACD0001C002C003C004C005C006C00780
:0D0ADA00309805C298859943AF43120D0C6A
:100AE700D007D006D005D004D003D002D001D00063
:0B0AF700D0D0D082D083D0F0D0E0320D
:100C9A00751B00751A1B7519B775180012000E120C
:100CAA000BBE120D147B007A007908120B8A80F5AC
:100C1D00535953636C6B3A31324D0D0A54494D3073
:100C2D005F5049543A31306D730D0A554152545F3E
:0C0C3D00424155443A323430300D0A0078
:100BBE007D0A7C00E4FF120B02120CED7BFF7A0C17
:100BCE00791D1203EF7F647E007D007C00120D0301
:100BDE007B007A007912120A757B007A007908027E
:020BEE000BF00A
:100CD6004B6579426F6172645F3478345F696E691F
:070CE600745F25640D0A0094
:100A75008B228A23892490000174011200D39000EF
:100A85000274011200D390000474101200D3900078
:100A95000374011200D390000574011200D3AB2238
:100AA500AA23A92490000112003FF5287BFF7A0CA8
:080AB50079D61203EF7F002245
:100C7500E41200C17590F000000000E59064F012E8
:100C850000C175900F00000000E590640F12006C24
:050C9500120026FF2201
:1006E9008B3F8A408941120C75EF70030207DDAB1D
:1006F9003FAA40A94190000212003F70030207DDA2
:10070900900001740112008ED3940150030207FE78
:100719001200261201FB075311076F12078B1407EA
:10072900A718075A2107762207922407AE280761DE
:1007390041077D4207994407B448076881078482C5
:1007490007A08407BB88000007C2900004740180D9
:100759006D900004740280669000047403805F90B9
:100769000004740C805890000474048051900004B3
:100779007405804A90000474068043900004740D47
:10078900803C900004740780359000047408802E22
:1007990090000474098027900004740E8020900052
:1007A90004740A8019900004E48013900004740B07
:1007B900800C900004740F800590000474111200DD
:1007C900D3AB3FAA40A941900002E41200D39000A4
:1007D90001E4801EAB3FAA40A94112002670169081
:1007E9000002041200D3900001E41200D390000427
:1007F90074101200D3AB3FAA40A941900004120023
:030809003FFF228C
:0F0CC0000D443F065B4F666D7D077F6F77734076
:060BF0008B228A238924F8
:100BF600E4FF900009041200D3900008E41200D329
:100C0600AB22AA23A9248F82758300740C1200D309
:060C16000FBF08EC7F0097
:010C1C0022B5
:080018007F027EEFDEFEDFFC3B
:0100200022BD
:060B8A008B228A2389245E
:100B9000E4FDED1392A2EDA2E192A3A2E292A4AB36
:100BA00022AA23A924F58275830012003F2444F869
:0D0BB000E6F580120018E4F5800DBD08D5B3
:010BBD002215
:060A23008B3F8A4089416F
:100A2900E4F542AB3FAA40A94190000812003F708B
:100A39003AAB3FAA40A941AF428F827583001200A9
:100A49003FB40C0DAF428F82758300ED1200D38045
:100A5900070542E542B408D9E542B4080EAB3FAAFE
:0B0A690040A94190000874011200D366
:010A7400225F
:060CCF00041C00000000FF
:100C49008F258E248D238C22AF1FAE1EAD1DAC1CAB
:100C590012019DAF25AE24AD23AC229000041201F0
:0C0C6900B790000974011200D37F002234
:10095D008B3F8A40894190000412016D1201DBC367
:10096D00E51F9BFBE51E9AFAE51D99F9E51C98F824
:10097D00C312015C401EAF1FAE1EAD1DAC1CAB3FC4
:10098D00AA40A94112019DAB3FAA40A94190000880
:10099D0074018012AB3FAA40A94190000812003F9C
:1009AD006007900008E41200D3AB3FAA40A9419024
:0709BD00000812003FFF22B9
:090D03007B007A007951020C49D1
:10080C008B398A3A893BAB3CAA3DA93E1206E900DA
:10081C00000000000000007B007A00795112095D95
:10082C00EF70030208D0AB3CAA3DA93E9000041225
:10083C00003FB40A0040030208D090084DF8282865
:10084C007302086B02087502087F0208890208937C
:10085C0002089D0208A70208B10208BB0208C5AB3A
:10086C0039AA3AA93BE4FD8058AB39AA3AA93B7D99
:10087C0001804EAB39AA3AA93B7D028044AB39AA20
:10088C003AA93B7D03803AAB39AA3AA93B7D048057
:10089C0030AB39AA3AA93B7D058026AB39AA3AA9D7
:1008AC003B7D06801CAB39AA3AA93B7D078012AB75
:1008BC0039AA3AA93B7D088008AB39AA3AA93B7DF5
:0508CC0009120A2322BD
:1008DD00020C9AE493A3F8E493A34003F68001F28B
:1008ED0008DFF48029E493A3F85407240CC8C3331C
:1008FD00C4540F4420C8834004F456800146F6DFEB
:10090D00E4800B0102040810204080900CBAE47EB4
:10091D00019360BCA3FF543F30E509541FFEE493DF
:10092D00A360010ECF54C025E060A840B8E493A3A6
:10093D00FAE493A3F8E493A3C8C582C8CAC583CAD1
:10094D00F0A3C8C582C8CAC583CADFE9DEE780BE89
:010CD500001E
:10002600BB010689828A83E0225002E722BBFE02D8
:09003600E32289828A83E493220B
:10003F00BB010CE58229F582E5833AF583E0225076
:10004F0006E92582F8E622BBFE06E92582F8E222C0
:0D005F00E58229F582E5833AF583E49322DA
:10006C00BB010989828A83F8E028F022500327F724
:10007C0022BBFE05F8E328F3228A838982F8E493F5
:02008C00282228
:10008E00BB010FF8E58229F582E5833AF583E02876
:10009E00F0225009C58229F8E58226F622BBFE0918
:1000AE00C58229F8E22582F222F8EA2583F583E952
:0300BE0093282262
:1000C100BB010689828A83F0225002F722BBFE011E
:0200D100F32218
:1000D300F8BB010DE58229F582E5833AF583E8F063
:1000E300225006E92582C8F622BBFE05E92582C80F
:0200F300F222F7
:1000F500EF8DF0A4A8F0CF8CF0A428CE8DF0A42E1F
:02010500FE22D8
:10010700BC000BBE0029EF8DF084FFADF022E4CCDC
:10011700F875F008EF2FFFEE33FEEC33FCEE9DECA5
:10012700984005FCEE9DFE0FD5F0E9E4CEFD22EDEB
:10013700F8F5F0EE8420D21CFEADF075F008EF2F35
:10014700FFED33FD4007985006D5F0F222C398FD26
:050157000FD5F0EA22C3
:100B4600C2D5E830E70FB2D5E4C39BFBE49AFAE4DA
:100B560099F9E498F8EC30E717B2D5120B7C12023B
:100B66005DE4C39BFBE49AFAE499F9E498F8800300
:100B760012025D30D50DE4C39FFFE49EFEE49DFDA9
:040B8600E49CFC22CD
:10015C00EB9FF5F0EA9E42F0E99D42F0E89C45F0F9
:01016C002270
:10016D00BB010DE58229F582E5833AF5830202FB99
:10017D005007E92582F80202EFBBFE07E92582F858
:10018D00020307E58229F582E5833AF5830203131D
:10019D00BB010789828A830203655005E9F80203D2
:0A01AD0059BBFE05E9F802037122B8
:1001B700BB010DE58229F582E5833AF583020365E4
:1001C7005007E92582F8020359BBFE07E92582F8A3
:0401D700020371228C
:1001DB00BB010789828A830203305005E9F80203C9
:1001EB0023BBFE05E9F802033C89828A830203499B
:1001FB00D083D082F8E4937012740193700DA3A393
:10020B0093F8740193F5828883E4737402936860A6
:06021B00EFA3A3A380DFA6
:10038D00E5342428F8E6053422782530070278284C
:10039D00E475F00112037D0200262000EB7F2ED2C2
:1003AD00008018EF540F2490D43440D4FF30040B48
:1003BD00EF24BFB41A0050032461FFE53560021528
:1003CD00350538E5387002053730070D7825E475A9
:1003DD00F00112037DEF0200C1020D0C7403D20770
:1003ED008003E4C207F5348B258A268927E4F53589
:1003FD00F537F538E53560077F201203C880F575B0
:10040D0036FFC201C200C202C203C205C206C20843
:10041D00120396FF700D3007057F001203D9AF3818
:10042D00AE3722B4255FC2D5C204120396FF24D085
:10043D00B40A00501A75F00A783530D50508B6FFA4
:10044D000106C6A426F620D5047002D20380D92455
:10045D00CFB41A00EF5004C2E5D2040205D9D2017F
:10046D0080C6D20080C0D20280BCD2D580BAD2055F
:10047D0080B47F201203C82002077401B5350040F7
:10048D00F112038DFF1203C8020401D208D20680B7
:10049D009512038DFB12038DFA12038DF94A4B70E1
:1004AD000679AA7A067BFF20022EE535602A7E00AA
:1004BD008E8275830012003F60060EEE653670F079
:1004CD00C2D5EBC0E0EAC0E0E9C0E0EE120620D0F4
:1004DD00E0F9D0E0FAD0E0FB120026FF60AAEBC0F5
:1004ED00E0EAC0E0E9C0E01203C8D0E02401F9D091
:1004FD00E03400FAD0E0FBE5360460DCD536D98077
:10050D00877BFF7A06791CD202809C791080027954
:10051D0008C206C2088008D2D5790A8004790AC2B9
:10052D00D5E536047002F536E4FAFDFEFF12038DB3
:10053D00FC7B0820011312038DFD7B1030000A1285
:10054D00038DFE12038DFF7B20EC3382D592D550A7
:10055D0013C3E43000069FFFE49EFEE42001039DDB
:10056D00FDE49CFCE4CBF8C201EC700CCFCECDCCFD
:10057D00E824F8F870F38017C3EF33FFEE33FEED88
:10058D0033FDEC33FCEB33FB994002FB0FD8E9EB69
:10059D00300105F8D0E0C448B201C0E00AEC4D4E80
:1005AD004F78207B0070C2EAB5360040BCC0E01227
:1005BD000622D0F0D0E0200104C4C0E0C4B201C0D6
:1005CD00F01203B1D0F0D5F0EB0204011201FB04DF
:1005DD009E53051858046F4C046B42051C4F05249F
:0F05ED0044052449048443052A55050E46050E8E
:1005FC0045050E4706CA5004732D04772E049A2B1A
:10060C00047B2304982006B32A0433480000049288
:10061C003F3F3F00790AA2D5200314300509B910D9
:10062C00020404B9080104A2D520060250010420DA
:10063C0002689202B535005034C0E07F20300319B7
:10064C007F30A20272067205500F120679C202C2E6
:10065C0006C205C2087F30800F300503E9C0E012E6
:10066C0003C8300503D0E0F9D0E0B535CC30051720
:10067C007F30B9100C1203C87F583004077F788084
:10068C0003B908031203C83002057F2D0203C87F8B
:10069C00202008F87F2B2006F322920280CF286EB0
:1006AC00756C6C2900D20112038D3001F8C20178EF
:1006BC003530D50108F60204332D50434958120346
:1006CC008D2403B405004001E49006C5931203B9D0
:0D06DC00743A1203B9D203753504020518F3
:1002210075F008758200EF2FFFEE33FECD33CDCC94
:1002310033CCC58233C5829BED9AEC99E582984017
:100241000CF582EE9BFEED9AFDEC99FC0FD5F0D6F4
:10025100E4CEFBE4CDFAE4CCF9A88222B800C1B91E
:100261000059BA002DEC8BF084CFCECDFCE5F0CB5C
:10027100F97818EF2FFFEE33FEED33FDEC33FCEB95
:1002810033FB10D703994004EB99FB0FD8E5E4F950
:10029100FA227818EF2FFFEE33FEED33FDEC33FC3D
:1002A100C933C910D7059BE99A4007EC9BFCE99A31
:1002B100F90FD8E0E4C9FAE4CCFB2275F010EF2F76
:1002C100FFEE33FEED33FDCC33CCC833C810D70776
:1002D1009BEC9AE899400AED9BFDEC9AFCE899F8B1
:0E02E1000FD5F0DAE4CDFBE4CCFAE4C8F92244
:0C02EF00E6FC08E6FD08E6FE08E6FF223B
:0C02FB00E0FCA3E0FDA3E0FEA3E0FF2276
:0C030700E2FC08E2FD08E2FE08E2FF2232
:10031300E493FC740193FD740293FE740393FF2230
:0D032300E6FB08E6F908E6FA08E6CBF8224A
:0C033000E0F8A3E0F9A3E0FAA3E0FB2250
:0D033C00E2FB08E2F908E2FA08E2CBF82241
:10034900E493F8740193F9740293FA740393FB220A
:0C035900ECF608EDF608EEF608EFF622D0
:0C036500ECF0A3EDF0A3EEF0A3EFF0220B
:0C037100ECF208EDF208EEF208EFF222C8
:10037D00FAE6FB0808E6F925F0F618E6CA3AF62281
:00000001FF
