:060AC3000417016E36006D
:0A000E00E4F58EF598F589020AF476
:030AF400C2AF226C
:030AF700D2AF2259
:0300000002078E66
:0C078E00787FE4F6D8FD75814F0207D596
:0208A9008F229C
:1008AB007E037FE81204637C007D0C120451AB07BE
:1008BB00AA06E4F9F8AF1AAE19AD18AC171208ED89
:1008CB00C3E49FFFE49EFEE52270098F8A8E8CD2D3
:1008DB008CD2A922E522B401088F8B8E8DD28ED2B9
:0108EB00AB61
:0108EC0022E9
:100AD90075985053890F438920758BF3758DF3C22F
:060AE900ABD28ED2AC225C
:080003008F993099FDC299228A
:050AEF00AE0702000348
:03000B0002081ACE
:10081A00C0E0C0F0C083C082C0D075D000C000C0A4
:10082A0001C002C003C004C005C006C007753C0071
:10083A00753D00753E127B007A0079081206E0D0F9
:10084A0007D006D005D004D003D002D001D000D002
:0A085A00D0D082D083D0F0D0E0327D
:030023000208646C
:10086400C0E0C0F0C083C082C0D075D000C000C05A
:0D08740001C002C003C004C005C006C007DB
:0D088100309805C298859942AF42120AEFE7
:10088E00D007D006D005D004D003D002D001D000BE
:0B089E00D0D0D082D083D0F0D0E03268
:100A8C00751A0075191B7518B775170012000E1220
:100A9C000A40120AF77B007A0079081209B380F534
:100A1400535953636C6B3A31324D0D0A54494D307E
:100A24005F5049543A31306D730D0A554152545F49
:0C0A3400424155443A323430300D0A0083
:100A40007D0A7C00E4FF1208A9120AD97BFF7A0A0A
:100A500079141200887B007A0079121209737B00E6
:070A60007A0079080209E7A2
:100AAC004B6579426F6172645F3478345F696E694B
:070ABC00745F25640D0A00C0
:100973008B228A238924900001740112042F900092
:1009830002740112042F900003741012042F9000BC
:1009930004740112042FAB22AA23A924900001128C
:1009A300039BF5287BFF7A0A79AC1200887F00222B
:100A6700E412041D7590F000000000E59064F01298
:100A7700041D75900F00000000E590640F1203C875
:050A8700120382FF22B2
:1005BC008B3F8A408941120A67EF70030206B1AB88
:1005CC003FAA40A94190000212039B70030206B19E
:1005DC0090000174011203EAD3940A50030206B18D
:1005EC001203821204B8062611064212065E140685
:1005FC007A18062D21064922066524068128063420
:10060C0041065042066C44068748063B81065782D9
:10061C00067384068E880000069590000374018092
:10062C006D900003740280669000037403805F90E9
:10063C000003740C805890000374048051900003E4
:10064C007405804A90000374068043900003740D77
:10065C00803C900003740780359000037408802E52
:10066C0090000374098027900003740E8020900082
:10067C0003740A8019900003E48013900003740B38
:10068C00800C900003740F8005900003741012040A
:10069C002FAB3FAA40A941900002E412042F900016
:1006AC0001E412042FAB3FAA40A941120382701639
:1006BC009000020412042F900001E412042F900009
:1006CC0003741012042FAB3FAA40A94190000312EF
:0406DC00039BFF225B
:0F0AC9000D433F065B4F666D7D077F6F77734070
:0609E7008B228A23892403
:1009ED00E4FF9000090412042F900008E412042F74
:1009FD00AB22AA23A9248F82758300740C12042FB5
:060A0D000FBF08EC7F00A2
:010A130022C0
:080018007F027EEFDEFEDFFC3B
:0100200022BD
:0609B3008B228A23892437
:1009B900E4FDED1392A2EDA2E192A3A2E292A4AB0F
:1009C90022AA23A924F58275830012039B2443F8E4
:0D09D900E6F580120018E4F5800DBD08D58C
:0109E60022EE
:060931008B3F8A40894162
:10093700E4FF90000812039B7031AB3FAA40A94126
:100947008F8275830012039BB40C0B8F8275830013
:10095700ED12042F80040FBF08E0BF080EAB3FAABB
:0B09670040A941900008740112042F09
:010972002262
:1006E0008B398A3A893BAB3CAA3DA93E1205BCAB8B
:1006F0003CAA3DA93E90000312039BB40A004003AC
:1007000002078D90070AF82828730207280207328B
:1007100002073C02074602075002075A020764021A
:10072000076E020778020782AB39AA3AA93BE4FDBB
:100730008058AB39AA3AA93B7D01804EAB39AA3A21
:10074000A93B7D028044AB39AA3AA93B7D03803A9C
:10075000AB39AA3AA93B7D048030AB39AA3AA93B10
:100760007D058026AB39AA3AA93B7D06801CAB39B2
:10077000AA3AA93B7D078012AB39AA3AA93B7D086A
:0E0780008008AB39AA3AA93B7D091209312243
:10079A00020A8CE493A3F8E493A34003F68001F2DF
:1007AA0008DFF48029E493A3F85407240CC8C33360
:1007BA00C4540F4420C8834004F456800146F6DF2F
:1007CA00E4800B0102040810204080900AC3E47EF2
:1007DA00019360BCA3FF543F30E509541FFEE49324
:1007EA00A360010ECF54C025E060A840B8E493A3EB
:1007FA00FAE493A3F8E493A3C8C582C8CAC583CA16
:10080A00F0A3C8C582C8CAC583CADFE9DEE780BECD
:010AD800001D
:10038200BB010689828A83E0225002E722BBFE0279
:09039200E32289828A83E49322AC
:10039B00BB010CE58229F582E5833AF583E0225017
:1003AB0006E92582F8E622BBFE06E92582F8E22261
:0D03BB00E58229F582E5833AF583E493227B
:1003C800BB010989828A83F8E028F022500327F7C5
:1003D80022BBFE05F8E328F3228A838982F8E49396
:0203E8002822C9
:1003EA00BB010FF8E58229F582E5833AF583E02817
:1003FA00F0225009C58229F8E58226F622BBFE09B9
:10040A00C58229F8E22582F222F8EA2583F583E9F2
:03041A0093282202
:10041D00BB010689828A83F0225002F722BBFE01BE
:02042D00F322B8
:10042F00F8BB010DE58229F582E5833AF583E8F003
:10043F00225006E92582C8F622BBFE05E92582C8AF
:02044F00F22297
:10045100EF8DF0A4A8F0CF8CF0A428CE8DF0A42EBF
:02046100FE2279
:10046300BC000BBE0029EF8DF084FFADF022E4CC7D
:10047300F875F008EF2FFFEE33FEEC33FCEE9DEC46
:10048300984005FCEE9DFE0FD5F0E9E4CEFD22ED8C
:10049300F8F5F0EE8420D21CFEADF075F008EF2FD6
:1004A300FFED33FD4007985006D5F0F222C398FDC7
:0504B3000FD5F0EA2264
:1008ED00C2D5E830E70FB2D5E4C39BFBE49AFAE436
:1008FD0099F9E498F8EC30E717B2D51209231205EF
:10090D001AE4C39BFBE49AFAE499F9E498F880039E
:10091D0012051A30D50DE4C39FFFE49EFEE49DFD44
:04092D00E49CFC2228
:1004B800D083D082F8E4937012740193700DA3A3D3
:1004C80093F8740193F5828883E4737402936860E7
:0604D800EFA3A3A380DFE7
:10002600E5342428F8E605342278253007027828B6
:10003600E475F0011205AC0203822000EB7F2ED29C
:10004600008018EF540F2490D43440D4FF30040BB2
:10005600EF24BFB41A0050032461FFE53560021592
:10006600350538E5387002053730070D7825E47513
:10007600F0011205ACEF02041D020AEF7403D20769
:100086008003E4C207F5348B258A268927E4F535F3
:10009600F537F538E53560077F2012006180F57584
:1000A60036FFC201C200C202C203C205C206C208AE
:1000B60012002FFF700D3007057F00120072AF3857
:1000C600AE3722B4255FC2D5C20412002FFF24D05A
:1000D600B40A00501A75F00A783530D50508B6FF0F
:1000E6000106C6A426F620D5047002D20380D924C0
:1000F600CFB41A00EF5004C2E5D204020272D20154
:1001060080C6D20080C0D20280BCD2D580BAD205C9
:1001160080B47F201200612002077401B5350040CB
:10012600F1120026FF12006102009AD208D2068060
:1001360095120026FB120026FA120026F94A4B7089
:100146000679437A037BFF20022EE535602A7E007E
:100156008E8275830012039B60060EEE653670F084
:10016600C2D5EBC0E0EAC0E0E9C0E0EE1202B9D0C9
:10017600E0F9D0E0FAD0E0FB120382FF60AAEBC000
:10018600E0EAC0E0E9C0E0120061D0E02401F9D065
:10019600E03400FAD0E0FBE5360460DCD536D980E1
:1001A600877BFF7A0279B5D202809C79108002792A
:1001B60008C206C2088008D2D5790A8004790AC224
:1001C600D5E536047002F536E4FAFDFEFF12002688
:1001D600FC7B08200113120026FD7B1030000A125A
:1001E6000026FE120026FF7B20EC3382D592D550E6
:1001F60013C3E43000069FFFE49EFEE42001039D46
:10020600FDE49CFCE4CBF8C201EC700CCFCECDCC67
:10021600E824F8F870F38017C3EF33FFEE33FEEDF2
:1002260033FDEC33FCEB33FB994002FB0FD8E9EBD3
:10023600300105F8D0E0C448B201C0E00AEC4D4EEA
:100246004F78207B0070C2EAB5360040BCC0E01291
:1002560002BBD0F0D0E0200104C4C0E0C4B201C0AB
:10026600F012004AD0F0D5F0EB02009A1204B80161
:10027600375301B15801084C01044201B54F01BD85
:0F0286004401BD49011D4301C35501A74601A70E
:100295004501A747036350010C2D01102E01332B97
:1002A500011423013120034C2A00CC480000012B06
:1002B5003F3F3F00790AA2D5200314300509B91044
:1002C500020404B9080104A2D52006025001042045
:1002D50002689202B535005034C0E07F2030031922
:1002E5007F30A20272067205500F120312C202C2BB
:1002F50006C205C2087F30800F300503E9C0E01251
:100305000061300503D0E0F9D0E0B535CC300517F4
:100315007F30B9100C1200617F583004077F788058
:1003250003B908031200613002057F2D0200617FC9
:10033500202008F87F2B2006F322920280CF286E1A
:10034500756C6C2900D2011200263001F8C20178C3
:100355003530D50108F60200CC2D5043495812001E
:10036500262403B405004001E490035E9312005275
:0D037500743A120052D2037535040201B132
:1004DE0075F008758200EF2FFFEE33FECD33CDCCD5
:1004EE0033CCC58233C5829BED9AEC99E582984058
:1004FE000CF582EE9BFEED9AFDEC99FC0FD5F0D635
:10050E00E4CEFBE4CDFAE4CCF9A88222B800C1B95E
:10051E000059BA002DEC8BF084CFCECDFCE5F0CB9C
:10052E00F97818EF2FFFEE33FEED33FDEC33FCEBD5
:10053E0033FB10D703994004EB99FB0FD8E5E4F990
:10054E00FA227818EF2FFFEE33FEED33FDEC33FC7D
:10055E00C933C910D7059BE99A4007EC9BFCE99A71
:10056E00F90FD8E0E4C9FAE4CCFB2275F010EF2FB6
:10057E00FFEE33FEED33FDCC33CCC833C810D707B6
:10058E009BEC9AE899400AED9BFDEC9AFCE899F8F1
:0E059E000FD5F0DAE4CDFBE4CCFAE4C8F92284
:1005AC00FAE6FB0808E6F925F0F618E6CA3AF62250
:00000001FF
