:06071D000422016E36000B
:0A072800E4F58EF598F58902073715
:03073700C2AF222C
:03073A00D2AF2219
:03000000020545B1
:0C054500787FE4F6D8FD75812502058C56
:020616008F084B
:100618007E037FE81203947C007D0C120382AB07F3
:10062800AA06E4F9F8AF25AE24AD23AC2212065A87
:10063800C3E49FFFE49EFEE50870098F8A8E8CD282
:100648008CD2A922E508B401088F8B8E8DD28ED268
:01065800ABF6
:01065900227E
:1007070075985053890F438920758BF3758DF3C204
:06071700ABD28ED2AC2231
:080003008F993099FDC299228A
:05073200AE0702000308
:04072300021D0000B3
:03000B000206CA20
:0406CA00C0E0C0D0FC
:1006CE00740A251EF51EE4351DF51DE51EB4E80D54
:0D06DE00E51DB40308751D00751E00B2A0D7
:0506EB00D0D0D0E03288
:030023000205D102
:1005D100C0E0C0F0C083C082C0D075D000C000C0F0
:0D05E10001C002C003C004C005C006C00771
:0D05EE00309805C29885991CAF1C12073289
:1005FB00D007D006D005D004D003D002D001D00054
:0B060B00D0D0D082D083D0F0D0E032FD
:10069E00535953636C6B3A31324D0D0A54494D30F8
:1006AE005F5049543A31306D730D0A554152545FC3
:0C06BE00424155443A323430300D0A00FD
:1006F00075250075241B7523B77522001207281273
:07070000000E12073A80FE13
:10000E007D0A7C00E4FF1206161207077BFF7A06B4
:05001E00799E0200883C
:100551000206F0E493A3F8E493A34003F68001F2CA
:1005610008DFF48029E493A3F85407240CC8C333AB
:10057100C4540F4420C8834004F456800146F6DF7A
:10058100E4800B010204081020408090071DE47EE6
:10059100019360BCA3FF543F30E509541FFEE4936F
:1005A100A360010ECF54C025E060A840B8E493A336
:1005B100FAE493A3F8E493A3C8C582C8CAC583CA61
:1005C100F0A3C8C582C8CAC583CADFE9DEE780BE19
:0107270000D1
:10038200EF8DF0A4A8F0CF8CF0A428CE8DF0A42E8F
:02039200FE2249
:10039400BC000BBE0029EF8DF084FFADF022E4CC4D
:1003A400F875F008EF2FFFEE33FEEC33FCEE9DEC16
:1003B400984005FCEE9DFE0FD5F0E9E4CEFD22ED5C
:1003C400F8F5F0EE8420D21CFEADF075F008EF2FA6
:1003D400FFED33FD4007985006D5F0F222C398FD97
:0503E4000FD5F0EA2234
:10065A00C2D5E830E70FB2D5E4C39BFBE49AFAE4CB
:10066A0099F9E498F8EC30E717B2D512069012041B
:10067A007DE4C39BFBE49AFAE499F9E498F88003D1
:10068A0012047D30D50DE4C39FFFE49EFEE49DFD78
:04069A00E49CFC22BE
:10002600E517240BF8E60517227808300702780B47
:10003600E475F00112050F0203E92000EB7F2ED2D2
:10004600008018EF540F2490D43440D4FF30040BB2
:10005600EF24BFB41A0050032461FFE518600215AF
:1000660018051BE51B7002051A30070D7808E475A4
:10007600F00112050FEF02042F0207327403D207B4
:100086008003E4C207F5178B088A09890AE4F51884
:10009600F51AF51BE51860077F2012006180F575DB
:1000A60019FFC201C200C202C203C205C206C208CB
:1000B60012002FFF700D3007057F00120072AF1B74
:1000C600AE1A22B4255FC2D5C20412002FFF24D077
:1000D600B40A00501A75F00A781830D50508B6FF2C
:1000E6000106C6A426F620D5047002D20380D924C0
:1000F600CFB41A00EF5004C2E5D204020272D20154
:1001060080C6D20080C0D20280BCD2D580BAD205C9
:1001160080B47F201200612002077401B5180040E8
:10012600F1120026FF12006102009AD208D2068060
:1001360095120026FB120026FA120026F94A4B7089
:100146000679437A037BFF20022EE518602A7E009B
:100156008E8275830012040260060EEE651970F039
:10016600C2D5EBC0E0EAC0E0E9C0E0EE1202B9D0C9
:10017600E0F9D0E0FAD0E0FB1203E9FF60AAEBC099
:10018600E0EAC0E0E9C0E0120061D0E02401F9D065
:10019600E03400FAD0E0FBE5190460DCD519D9801B
:1001A600877BFF7A0279B5D202809C79108002792A
:1001B60008C206C2088008D2D5790A8004790AC224
:1001C600D5E519047002F519E4FAFDFEFF120026C2
:1001D600FC7B08200113120026FD7B1030000A125A
:1001E6000026FE120026FF7B20EC3382D592D550E6
:1001F60013C3E43000069FFFE49EFEE42001039D46
:10020600FDE49CFCE4CBF8C201EC700CCFCECDCC67
:10021600E824F8F870F38017C3EF33FFEE33FEEDF2
:1002260033FDEC33FCEB33FB994002FB0FD8E9EBD3
:10023600300105F8D0E0C448B201C0E00AEC4D4EEA
:100246004F78207B0070C2EAB5190040BCC0E012AE
:1002560002BBD0F0D0E0200104C4C0E0C4B201C0AB
:10026600F012004AD0F0D5F0EB02009A12051F01F9
:10027600375301B15801084C01044201B54F01BD85
:0F0286004401BD49011D4301C35501A74601A70E
:100295004501A747036350010C2D01102E01332B97
:1002A500011423013120034C2A00CC480000012B06
:1002B5003F3F3F00790AA2D5200314300509B91044
:1002C500020404B9080104A2D52006025001042045
:1002D50002689202B518005034C0E07F203003193F
:1002E5007F30A20272067205500F120312C202C2BB
:1002F50006C205C2087F30800F300503E9C0E01251
:100305000061300503D0E0F9D0E0B518CC30051711
:100315007F30B9100C1200617F583004077F788058
:1003250003B908031200613002057F2D0200617FC9
:10033500202008F87F2B2006F322920280CF286E1A
:10034500756C6C2900D2011200263001F8C20178C3
:100355001830D50108F60200CC2D5043495812003B
:10036500262403B405004001E490035E9312005275
:0D037500743A120052D2037518040201B14F
:1003E900BB010689828A83E0225002E722BBFE0212
:0903F900E32289828A83E4932245
:10040200BB010CE58229F582E5833AF583E02250AF
:1004120006E92582F8E622BBFE06E92582F8E222F9
:0D042200E58229F582E5833AF583E4932213
:10042F00BB010689828A83F0225002F722BBFE01AC
:02043F00F322A6
:1004410075F008758200EF2FFFEE33FECD33CDCC72
:1004510033CCC58233C5829BED9AEC99E5829840F5
:100461000CF582EE9BFEED9AFDEC99FC0FD5F0D6D2
:10047100E4CEFBE4CDFAE4CCF9A88222B800C1B9FC
:100481000059BA002DEC8BF084CFCECDFCE5F0CB3A
:10049100F97818EF2FFFEE33FEED33FDEC33FCEB73
:1004A10033FB10D703994004EB99FB0FD8E5E4F92E
:1004B100FA227818EF2FFFEE33FEED33FDEC33FC1B
:1004C100C933C910D7059BE99A4007EC9BFCE99A0F
:1004D100F90FD8E0E4C9FAE4CCFB2275F010EF2F54
:1004E100FFEE33FEED33FDCC33CCC833C810D70754
:1004F1009BEC9AE899400AED9BFDEC9AFCE899F88F
:0E0501000FD5F0DAE4CDFBE4CCFAE4C8F92221
:10050F00FAE6FB0808E6F925F0F618E6CA3AF622ED
:10051F00D083D082F8E4937012740193700DA3A36B
:10052F0093F8740193F5828883E47374029368607F
:06053F00EFA3A3A380DF7F
:00000001FF
