:04127000016E3600D5
:0A124200E4F58EF598F589021274A8
:03127400C2AF22E4
:03127700D2AF22D1
:04126C0075E13422D2
:03000000020BDA16
:0C0BDA00787FE4F6D8FD758175020C21CF
:020EAD008F2391
:100EAF007E037FE81201077C007D0C1200F5AB0773
:100EBF00AA06E4F9F89012701202A9120E69C3E49F
:100ECF009FFFE49EFEE52370098F8A8E8CD28CD211
:0F0EDF00A922E523B401088F8B8E8DD28ED2AB62
:010EEE0022E1
:1011A20075985053890F438920758BF3758DF3C25F
:0611B200ABD28ED2AC228C
:080003008F993099FDC299228A
:05126700AE07020003C8
:031216000175FF60
:03000B00020B45A0
:100B4500C0E0C0F0C083C082C0D075D000C000C076
:100B550001C002C003C004C005C006C007AF74AE23
:100B650073AD72AC71EF2405FFE43EFEE43DFDE498
:100B75003CFC8F748E738D72F5717BD87AFE79FF8C
:100B850078FFD312022A400375E134E47BC8FAF9F1
:100B9500F8AF74AE73AD72AC71120198AC00AD01D3
:100BA500AE02AF03E4FBFAF9F8C312022A7008E5B6
:100BB50075F460037575FF120CCDD007D006D0050E
:100BC500D004D003D002D001D000D0D0D082D083C1
:050BD500D0F0D0E03279
:0300230002000ECA
:07000E00C0D075D000C0074F
:09001500309804C298AF998F7570
:05001E00D007D0D03234
:10118B00121242120E2512126C1212777B007A0089
:07119B007908120F6580F5D1
:100FF800535953636C6B3A31324D0D0A54494D3095
:101008005F5049543A31306D730D0A554152545F5F
:0C101800424155443A323430300D0A0099
:100E25007D0A7C00E4FF120EAD1211A27BFF7A0F42
:100E350079F81203F5E4752A607529EAF528F5278E
:100E4500752EC8752DAFF52CF52B7F64FEFDFC12B4
:100E5500107A7B007A00791B1210F37B007A0079F7
:040E650008020F313F
:1010F30090000174011200D390000274011200D316
:1011030090000474101200D390000374011200D3F2
:031113007F002238
:1010CE00E41200C17590F000000000E59064F0128B
:1010DE0000C175900F00000000E590640F12006CC7
:0510EE00120026FF22A4
:1006EF008B388A39893A1210CEEF70030207E4ABC8
:1006FF0038AA39A93A90000212003F70030207E4AA
:10070F00900001740112008ED3940150030207E48C
:10071F001200261202D907591107751207911407F3
:10072F00AD18076021077C2207982407B4280767B4
:10073F0041078342079F4407BA48076E81078A82A1
:10074F0007A68407C188000007C8900004740180C1
:10075F006D900004740280669000047403805F90B3
:10076F000004740C805890000474048051900004AD
:10077F007405804A90000474068043900004740D41
:10078F00803C900004740780359000047408802E1C
:10079F0090000474098027900004740E802090004C
:1007AF0004740A8019900004E48013900004740B01
:1007BF00800C900004740F800590000474111200D7
:1007CF00D3AB38AA39A93A900002E41200D39000B3
:1007DF0001E41200D3AB38AA39A93A1200267016D9
:1007EF00900002041200D3900001E41200D3900095
:1007FF000474101200D3AB38AA39A93A900004122E
:04080F00003FFF2285
:100F99004E6F7420436F72726563742E0D0A000DD3
:100FA9000A004661696C20746F2072656461696C1E
:100FB9002E0D0A003F065B4F666D7D077F6F7773C5
:010FC90040E7
:060F31008B238A248925B0
:100F3700E4FF9000101200D3900011E41200D39048
:100F4700001274011200D3AB23AA24A9258F82753E
:0D0F57008300740C1200D30FBF08EC7F0064
:010F6400226A
:08124C007F027EEFDEFEDFFCF5
:011254002277
:060F65008B238A2489257C
:100F6B00E4FDED1392A2EDA2E192A3A2E292A4AB57
:100F7B0023AA24A925F58275830012003F900FBD8B
:0D0F8B0093F58012124CE4F5800DBD08D5E1
:010F98002236
:060DDA008B3C8A3D893EBE
:100DE000E4FF9000121200D390001112003F703403
:100DF000AB3CAA3DA93E8F8275830012003FB40C24
:100E00000B8F82758300ED1200D380040FBF08E0C2
:100E1000EFC39407400EAB3CAA3DA93E900011746D
:040E2000011200D3E8
:010E240022AB
:100EEF007F08900011E41200D390001212003F709F
:100EFF0030EF7C0024FFF582EC34FFF58312003FC6
:100F0F00640C6011EF24FFF582EC34FFF583740C51
:100F1F001200D38002DFDAEF700790001204120084
:010F2F00D3EE
:010F3000229E
:0608EC008B3C8A3D893EB1
:1008F200E4F53F90001112003F700C7BFF7A0F79F4
:10090200991203F57F0022AB3CAA3DA93E9000104C
:1009120012003F7007900010041200D3E53FC39409
:100922000840030209B3AB3CAA3DA93E853F82754C
:10093200830012003FB40A00504E900943F8282861
:100942007302096102096502096902096D020971EE
:1009520002097502097902097D0209810209857F6E
:100962003080227F31801E7F32801A7F3380167F53
:100972003480127F35800E7F36800A7F3780067F73
:100982003880027F39121267AB3CAA3DA93E853FEF
:100992008275830012003FFFE92408F9E43AFAE580
:1009A2003F7C0029F9EC3AFAEF1200C1053F020937
:0C09B2001E7BFF7A0F79A81203F57F016D
:0109BE002216
:061024008B398A3A893B7A
:10102A00E4FF9000111200D390001274011200D351
:10103A00AB39AA3AA93B8F82758300740C1200D38C
:04104A000FBF08ECE0
:01104E00227F
:060D34008B388A39893A70
:100D3A00E4F53B90001012003F700C7BFF7A0F79AC
:100D4A00AB1203F57F0022E53BC394085023AB386E
:100D5A00E53A2408F9E43539FA7E00E9253BF9EE4B
:100D6A003AFA120026FDAA39A93A120DDA053B8091
:0C0D7A00D6AB38AA39A93A1208EC7F0168
:010D8600224A
:061219000471000000005A
:10104F008F328E318D308C2FAF74AE73AD72AC7119
:10105F0012026BAF32AE31AD30AC2F9000041202E2
:0B106F0085900008E41200D37F0022EF
:100C66008B398A3A893B90000412023B1202B9C3BF
:100C7600E5749BFBE5739AFAE57299F9E57198F8C4
:100C8600C312022A401EAF74AE73AD72AC71AB399B
:100C9600AA3AA93B12026BAB39AA3AA93B900008C3
:100CA60074018012AB39AA3AA93B90000812003FA2
:100CB6006007900008E41200D3AB39AA3AA93B902A
:070CC600000812003FFF22AD
:1011CE00AF74AE73AD72AC7112026B900008E40294
:0211DE0000D33C
:06121F00016700016604F6
:100CCD00E4F537E53775F007A424D0F582E4340850
:100CDD00F583E49365677045E5666567601EE537E6
:100CED0075F007A424D1F582E43408F583E474018A
:100CFD0093FA740293F91202FF8567661211E0E50B
:100D0D003775F007A424D4F582E43408F583E47430
:100D1D000193FA740293F91202FF020D870537E56C
:060D2D0037C39404409D51
:010D3300229D
:100D8700E4F538E53875F005A4241DF582E4340B45
:100D9700F583E493B56732E53875F005A4241EF5AD
:100DA70082E4340BF583E4740193FA740293F91225
:100DB70002FFEF6014E53875F005A42421F582E4FD
:100DC700340BF583E493F567220538E538C39408B7
:020DD70040B129
:010DD90022F7
:10107A007B007A00796812104F7B007A00795DAFA5
:10108A002AAE29AD28AC2712104F7B007A0079547A
:0B109A00AF2EAE2DAD2CAC2B02104F82
:1011E0007B007A00791B1206EF000000000000006F
:0211F0000022DB
:10081300E78EB0E59CA8E58FAFE4BBA5E8BE93E502
:1008230085A5E58FB7E7A0813A0D0A00E7AD89E515
:10083300BE85E5AFB9E696B9E68EA5E58F972E2E70
:100843002E0D0A00E68EA5E9809AE68890E58A9F38
:100853002C20E6ADA3E59CA8E9809AE8AF9D210D85
:100863000A00E68EA5E9809AE5A4B1E8B4A52C2098
:10087300E5B086E59CA8203120E58886E9929FE5CE
:10088300908EE5B09DE8AF95E9878DE68BA82E0D98
:100893000AE68C89E68C82E696ADE994AEE58F96FE
:1008A300E6B688E9878DE68BA8E8AEA1E588922EA7
:1008B30020E68C89E9878DE68BA8E994AEE7AB8BBC
:1008C300E58DB3E9878DE68BA82E0D0A0000FF1294
:1008D30055FF09BF01FF11F2FF127A02FF125EFFFB
:0908E300127B03FF1204FF11B89F
:091255007BFF7A0879130203F50E
:1009BF007B007A007968120C66EF7003020A8FE5EC
:1009CF001FB410004003020A8F9009DFF828287324
:1009DF00020A0F020A19020A23020A2D020A37021B
:1009EF000A41020A4B020A55020A5F020A69020A09
:1009FF008F020A8F020A8F020A7D020A74020A8688
:100A0F007B007A007908E4FD80587B007A00790832
:100A1F007D01804E7B007A0079087D0280447B0047
:100A2F007A0079087D03803A7B007A0079087D048B
:100A3F0080307B007A0079087D0580267B007A0064
:100A4F0079087D06801C7B007A0079087D0780126B
:100A5F007B007A0079087D0880087B007A0079088E
:100A6F007D09020DDA7B007A007908020EEF7B0018
:100A7F007A0079080210247B007A007908120D346D
:010A8F002244
:1011F2007B007A0079541211CE7BFF7A08792F0294
:0212020003F5F2
:01127A002251
:09125E007BFF7A0879470203F5D1
:01127B002250
:101204007B007A00795D1211CE7BFF7A0879650242
:0212140003F5E0
:1011B8007B007A00795D120C66EF60097B007A008B
:0611C8007908120D34222B
:100A9000E4BDA0E68C82E696ADE794B5E8AF9D2E66
:100AA0000D0A00E5AFB9E696B9E5B7B2E68C82E685
:100AB00096AD2E0D0A00E4BDA0E5B7B2E7BB8FE608
:100AC0008C82E696AD2E0D0A00E8A2ABE5AFB9E642
:100AD00096B9E68B92E7BB9D210D0A00E5AFB9E61A
:100AE00096B9E69CAAE5BA94E7AD94210D0A00E414
:100AF000BDA0E58F96E6B688E4BA86E9878DE692D2
:100B0000ADE8AEA1E58892210D0A00E6ADA3E59C13
:100B1000A8E9878DE68BA82E2E2E0D0A0000FF1166
:100B2000720101FF12260201FF11380001FF0FCAF6
:100B30000302FF10A50003FF11550003FF1234024A
:050B400003FF11160186
:10117200E51FB40C11E519B4010C7B007A00790863
:091182001208EC7F01227F00221B
:0E122600E575B401067575FF7F01227F002279
:10113800E51FB40D157BFF7A0A79901203F57B0041
:0D1148007A0079081210247F01227F002216
:1010A500E57570087BFF7A0A79A3800BE51FB40DFF
:1010B500157BFF7A0A79B61203F57B007A00790869
:0910C5001210247F01227F002299
:100FCA00E575700F7BFF7A0A79C91203F57575FF0B
:100FDA007F01227B007A007954120C66EF600C7B49
:0E0FEA00FF7A0A79DC1203F57F01227F0022D4
:10115500E51FB40D157B007A0079081210247BFF7A
:0D1165007A0A79EF1203F57F01227F002244
:0E123400E575B401067575FF7F01227F00226B
:10111600E51FB40F02800C7B007A00795D120C6625
:10112600EF600C7BFF7A0B790B1203F57F01227FB0
:02113600002295
:100BE60002118BE493A3F8E493A34003F68001F289
:100BF60008DFF48029E493A3F85407240CC8C33310
:100C0600C4540F4420C8834004F456800146F6DFDE
:100C1600E4800B0102040810204080901216E47E46
:100C2600019360BCA3FF543F30E509541FFEE493D3
:100C3600A360010ECF54C025E060A840B8E493A39A
:100C4600FAE493A3F8E493A3C8C582C8CAC583CAC5
:100C5600F0A3C8C582C8CAC583CADFE9DEE780BE7D
:0112250000C8
:10002600BB010689828A83E0225002E722BBFE02D8
:09003600E32289828A83E493220B
:10003F00BB010CE58229F582E5833AF583E0225076
:10004F0006E92582F8E622BBFE06E92582F8E222C0
:0D005F00E58229F582E5833AF583E49322DA
:10006C00BB010989828A83F8E028F022500327F724
:10007C0022BBFE05F8E328F3228A838982F8E493F5
:02008C00282228
:10008E00BB010FF8E58229F582E5833AF583E02876
:10009E00F0225009C58229F8E58226F622BBFE0918
:1000AE00C58229F8E22582F222F8EA2583F583E952
:0300BE0093282262
:1000C100BB010689828A83F0225002F722BBFE011E
:0200D100F32218
:1000D300F8BB010DE58229F582E5833AF583E8F063
:1000E300225006E92582C8F622BBFE05E92582C80F
:0200F300F222F7
:1000F500EF8DF0A4A8F0CF8CF0A428CE8DF0A42E1F
:02010500FE22D8
:10010700BC000BBE0029EF8DF084FFADF022E4CCDC
:10011700F875F008EF2FFFEE33FEEC33FCEE9DECA5
:10012700984005FCEE9DFE0FD5F0E9E4CEFD22EDEB
:10013700F8F5F0EE8420D21CFEADF075F008EF2F35
:10014700FFED33FD4007985006D5F0F222C398FD26
:050157000FD5F0EA22C3
:10015C0075F008758200EF2FFFEE33FECD33CDCC5A
:10016C0033CCC58233C5829BED9AEC99E5829840DD
:10017C000CF582EE9BFEED9AFDEC99FC0FD5F0D6BA
:10018C00E4CEFBE4CDFAE4CCF9A88222B800C1B9E4
:10019C000059BA002DEC8BF084CFCECDFCE5F0CB22
:1001AC00F97818EF2FFFEE33FEED33FDEC33FCEB5B
:1001BC0033FB10D703994004EB99FB0FD8E5E4F916
:1001CC00FA227818EF2FFFEE33FEED33FDEC33FC03
:1001DC00C933C910D7059BE99A4007EC9BFCE99AF7
:1001EC00F90FD8E0E4C9FAE4CCFB2275F010EF2F3C
:1001FC00FFEE33FEED33FDCC33CCC833C810D7073C
:10020C009BEC9AE899400AED9BFDEC9AFCE899F876
:0E021C000FD5F0DAE4CDFBE4CCFAE4C8F92209
:100E6900C2D5E830E70FB2D5E4C39BFBE49AFAE4B4
:100E790099F9E498F8EC30E717B2D5120E9F1201F0
:100E890098E4C39BFBE49AFAE499F9E498F880039F
:100E990012019830D50DE4C39FFFE49EFEE49DFD49
:040EA900E49CFC22A7
:10022A00EB9FF5F0EA9E42F0E99D42F0E89C45F02A
:01023A0022A1
:10023B00BB010DE58229F582E5833AF583020311B3
:10024B005007E92582F8020305BBFE07E92582F872
:10025B0002031DE58229F582E5833AF5830202A9A3
:10026B00BB010789828A8302036B5005E9F80203FD
:0A027B005FBBFE05E9F802037722DD
:10028500BB010DE58229F582E5833AF58302036B0F
:100295005007E92582F802035FBBFE07E92582F8CE
:0402A50002037722B7
:1002A900E493FC740193FD740293FE740393FF229B
:1002B900BB010789828A830203365005E9F80203E4
:1002C90029BBFE05E9F802034289828A8302034FAA
:1002D900D083D082F8E4937012740193700DA3A3B4
:1002E90093F8740193F5828883E4737402936860C8
:0602F900EFA3A3A380DFC8
:0602FF008A838982E4738A
:10039300E54F2443F8E6054F2278403010027843B6
:1003A300E475F0011203830200262009EB7F2ED2AD
:1003B300098018EF540F2490D43440D4FF300D0B30
:1003C300EF24BFB41A0050032461FFE55060021507
:1003D300500553E5537002055230100D7840E47513
:1003E300F001120383EF0200C10212677403D210FB
:1003F3008003E4C210F54F8B408A418942E4F550F3
:10040300F552F553E55060077F201203CE80F57552
:1004130051FFC20AC209C20BC20CC20EC20FC211E3
:1004230012039CFF700D3010057F001203DFAF53E2
:10043300AE5222B4255FC2D5C20D12039CFF24D055
:10044300B40A00501A75F00A785030D50508B6FF83
:100453000106C6A426F620D5047002D20C80D92446
:10046300CFB41A00EF5004C2E5D20D0205DFD20A61
:1004730080C6D20980C0D20B80BCD2D580BAD20E3E
:1004830080B47F201203CE200B077401B5500040C7
:10049300F1120393FF1203CE020407D211D20F808D
:1004A30095120393FB120393FA120393F94A4B70C9
:1004B3000679B07A067BFF200B2EE550602A7E007A
:1004C3008E8275830012003F60060EEE655170F058
:1004D300C2D5EBC0E0EAC0E0E9C0E0EE120626D0E8
:1004E300E0F9D0E0FAD0E0FB120026FF60AAEBC0EF
:1004F300E0EAC0E0E9C0E01203CED0E02401F9D085
:10050300E03400FAD0E0FBE5510460DCD551D9803A
:10051300877BFF7A067922D20B809C79108002793F
:1005230008C20FC2118008D2D5790A8004790AC2A1
:10053300D5E551047002F551E4FAFDFEFF12039371
:10054300FC7B08200A13120393FD7B1030090A1267
:100553000393FE120393FF7B20EC3382D592D55095
:1005630013C3E43009069FFFE49EFEE4200A039DC3
:10057300FDE49CFCE4CBF8C20AEC700CCFCECDCCEE
:10058300E824F8F870F38017C3EF33FFEE33FEED82
:1005930033FDEC33FCEB33FB994002FB0FD8E9EB63
:1005A300300A05F8D0E0C448B20AC0E00AEC4D4E68
:1005B3004F78207B0070C2EAB5510040BCC0E01206
:1005C3000628D0F0D0E0200A04C4C0E0C4B20AC0B8
:1005D300F01203B7D0F0D5F0EB0204071202D904EE
:1005E300A453051E5804754C04714205224F052A75
:0F05F30044052A49048A4305305505144605146A
:100602004505144706D05004792D047D2E04A02BF5
:10061200048123049E2006B92A0439480000049864
:100622003F3F3F00790AA2D5200C14300E09B910C1
:10063200020404B9080104A2D5200F0250010420CB
:100642000B68920BB550005034C0E07F20300C197B
:100652007F30A20B720F720E500F12067FC20BC2B6
:100662000FC20EC2117F30800F300E03E9C0E012BC
:1006720003CE300E03D0E0F9D0E0B550CC300E17E7
:100682007F30B9100C1203CE7F58300D077F78806F
:1006920003B908031203CE300B057F2D0203CE7F70
:1006A200202011F87F2B200FF322920B80CF286E8F
:1006B200756C6C2900D20A120393300AF8C20A78C8
:1006C2005030D50108F60204392D5043495812031F
:1006D200932403B405004001E49006CB931203BFB8
:0D06E200743A1203BFD20C75500402051EBD
:0C030500E6FC08E6FD08E6FE08E6FF2224
:0C031100E0FCA3E0FDA3E0FEA3E0FF225F
:0C031D00E2FC08E2FD08E2FE08E2FF221C
:0D032900E6FB08E6F908E6FA08E6CBF82244
:0C033600E0F8A3E0F9A3E0FAA3E0FB224A
:0D034200E2FB08E2F908E2FA08E2CBF8223B
:10034F00E493F8740193F9740293FA740393FB2204
:0C035F00ECF608EDF608EEF608EFF622CA
:0C036B00ECF0A3EDF0A3EEF0A3EFF02205
:0C037700ECF208EDF208EEF208EFF222C2
:10038300FAE6FB0808E6F925F0F618E6CA3AF6227B
:00000001FF
