:060DAE000419016E36007D
:0A0DF700E4F58EF598F5890200205E
:03002000C2AF224A
:030E1800D2AF2234
:0300000002098270
:0C098200787FE4F6D8FD7581730209C986
:020BAC008F2395
:100BAE007E037FE81201077C007D0C1200F5AB0777
:100BBE00AA06E4F9F8AF1CAE1BAD1AAC19120BF075
:100BCE00C3E49FFFE49EFEE52370098F8A8E8CD2CC
:100BDE008CD2A922E523B401088F8B8E8DD28ED2B2
:010BEE00AB5B
:010BEF0022E3
:100DE10075985053890F438920758BF3758DF3C224
:060DF100ABD28ED2AC2251
:080003008F993099FDC299228A
:050E1300AE0702000320
:03000B00020A7571
:100A7500C0E0C0F0C083C082C0D075D000C000C047
:100A850001C002C003C004C005C006C007E5732449
:100A950005F573E43572F572E43571F571E4357079
:100AA500F570753D00753E00753F137B007A007942
:100AB5000812080CD007D006D005D004D003D00208
:0F0AC500D001D000D0D0D082D083D0F0D0E0329A
:03002300020B6766
:100B6700C0E0C0F0C083C082C0D075D000C000C054
:0D0B770001C002C003C004C005C006C007D5
:0D0B8400309805C298859958AF58120E138D
:100B9100D007D006D005D004D003D002D001D000B8
:0B0BA100D0D0D082D083D0F0D0E03262
:100D8E00751C00751B1B751AB7751900120DF7121D
:100D9E000CDF120E187B007A007908120CAB80F56E
:100D1100535953636C6B3A31324D0D0A54494D307E
:100D21005F5049543A31306D730D0A554152545F49
:0C0D3100424155443A323430300D0A0083
:100CDF007D0A7C00E4FF120BAC120DE17BFF7A0D55
:100CEF0079111203EF7F647E007D007C00120E0AE3
:100CFF007B007A007913120B1F7B007A00790802B0
:020D0F000C7660
:100DCA004B6579426F6172645F3478345F696E692A
:070DDA00745F25640D0A009F
:100B1F008B238A24892590000174011200D3900041
:100B2F000274011200D390000474101200D39000CD
:100B3F000374011200D390000574011200D3AB238C
:100B4F00AA24A92590000112003FF5477BFF7A0DDB
:080B5F0079CA1203EF7F0022A6
:100D6900E41200C17590F000000000E59064F012F3
:100D790000C175900F00000000E590640F12006C2F
:050D8900120026FF220C
:1006E9008B408A418942120D69EF70030207DDAB25
:1006F90040AA41A94290000212003F70030207DD9F
:10070900900001740112008ED3940150030207FE78
:100719001200261201FB075311076F12078B1407EA
:10072900A718075A2107762207922407AE280761DE
:1007390041077D4207994407B448076881078482C5
:1007490007A08407BB88000007C2900004740180D9
:100759006D900004740280669000047403805F90B9
:100769000004740C805890000474048051900004B3
:100779007405804A90000474068043900004740D47
:10078900803C900004740780359000047408802E22
:1007990090000474098027900004740E8020900052
:1007A90004740A8019900004E48013900004740B07
:1007B900800C900004740F800590000474111200DD
:1007C900D3AB40AA41A942900002E41200D39000A1
:1007D90001E4801EAB40AA41A9421200267016907E
:1007E9000002041200D3900001E41200D390000427
:1007F90074101200D3AB40AA41A942900004120020
:030809003FFF228C
:10000E004E6F7420436F72726563742E0D0A000D6D
:02001E000A00D6
:0F0DB4000D593F065B4F666D7D077F6F7773406C
:060C76008B238A2489256E
:100C7C00E4FF90000A041200D3900008E41200D3A1
:100C8C0090000974011200D3AB23AA24A9258F82EA
:0E0C9C00758300740C1200D30FBF08EC7F00AC
:010CAA002227
:080E01007F027EEFDEFEDFFC44
:010E090022C6
:060CAB008B238A24892539
:100CB100E4FDED1392A2EDA2E192A3A2E292A4AB14
:100CC10023AA24A925F58275830012003F2459F82F
:0D0CD100E6F580120E01E4F5800DBD08D59A
:010CDE0022F3
:060AD4008B408A418942BB
:100ADA00E4FF9000091200D390000812003F70341E
:100AEA00AB40AA41A9428F8275830012003FB40C21
:100AFA000B8F82758300ED1200D380040FBF08E0CC
:100B0A00EFC39407400EAB40AA41A9429000087473
:040B1A00011200D3F1
:010B1E0022B4
:100C34007F08900008E41200D390000912003F706E
:100C440030EF7C0024FFF582EC34FFF58312003F83
:100C5400640C6011EF24FFF582EC34FFF583740C0F
:100C64001200D38002DFDAEF70079000090412004B
:010C7400D3AC
:010C7500225C
:0608F2008B408A4189429F
:1008F800E4F54390000812003F70087BFF7A007906
:100908000E8073E543C394085066AB40AA41A942E0
:1009180085438275830012003FB40A00504E900947
:100928002DF828287302094B02094F0209530209BE
:100938005702095B02095F02096302096702096B32
:1009480002096F7F3080227F31801E7F32801A7FBC
:100958003380167F3480127F35800E7F36800A7F81
:100968003780067F3880027F39120E130543809343
:090978007BFF7A00791D1203EFE8
:010981002253
:060DC300047000000000B6
:100D3D008F268E258D248C23AF73AE72AD71AC7062
:100D4D0012019DAF26AE25AD24AC239000041201F7
:0C0D5D00B790000974011200D37F00223F
:100A0E008B408A41894290000412016D1201DBC3B2
:100A1E00E5739BFBE5729AFAE57199F9E57098F822
:100A2E00C312015C401EAF73AE72AD71AC70AB40C1
:100A3E00AA41A94212019DAB40AA41A942900008C9
:100A4E0074018012AB40AA41A94290000812003FE7
:100A5E006007900008E41200D3AB40AA41A942906F
:070A6E00000812003FFF2207
:090E0A007B007A007966020D3DBF
:10080C008B3A8A3B893CAB3DAA3EA93F1206E900D4
:10081C00000000000000007B007A007966120A0ECE
:10082C00EF70030208F1AB3DAA3EA93F9000041201
:10083C00003FB40F0040030208F190084DF828283F
:10084C007302087A02088402088E0208980208A231
:10085C000208AC0208B60208C00208CA0208D40298
:10086C0008F10208F10208E80208F10208DFAB3ACD
:10087C00AA3BA93CE4FD8058AB3AAA3BA93C7D01BC
:10088C00804EAB3AAA3BA93C7D028044AB3AAA3BD2
:10089C00A93C7D03803AAB3AAA3BA93C7D0480304D
:1008AC00AB3AAA3BA93C7D058026AB3AAA3BA93CB6
:1008BC007D06801CAB3AAA3BA93C7D078012AB3A63
:1008CC00AA3BA93C7D088008AB3AAA3BA93C7D0910
:1008DC00020AD4AB3AAA3BA93C020C34AB3AAA3B71
:0608EC00A93C1208F222F3
:10098E00020D8EE493A3F8E493A34003F68001F2E4
:10099E0008DFF48029E493A3F85407240CC8C3336A
:1009AE00C4540F4420C8834004F456800146F6DF39
:1009BE00E4800B0102040810204080900DAEE47E0E
:1009CE00019360BCA3FF543F30E509541FFEE4932E
:1009DE00A360010ECF54C025E060A840B8E493A3F5
:1009EE00FAE493A3F8E493A3C8C582C8CAC583CA20
:1009FE00F0A3C8C582C8CAC583CADFE9DEE780BED8
:010DC9000029
:10002600BB010689828A83E0225002E722BBFE02D8
:09003600E32289828A83E493220B
:10003F00BB010CE58229F582E5833AF583E0225076
:10004F0006E92582F8E622BBFE06E92582F8E222C0
:0D005F00E58229F582E5833AF583E49322DA
:10006C00BB010989828A83F8E028F022500327F724
:10007C0022BBFE05F8E328F3228A838982F8E493F5
:02008C00282228
:10008E00BB010FF8E58229F582E5833AF583E02876
:10009E00F0225009C58229F8E58226F622BBFE0918
:1000AE00C58229F8E22582F222F8EA2583F583E952
:0300BE0093282262
:1000C100BB010689828A83F0225002F722BBFE011E
:0200D100F32218
:1000D300F8BB010DE58229F582E5833AF583E8F063
:1000E300225006E92582C8F622BBFE05E92582C80F
:0200F300F222F7
:1000F500EF8DF0A4A8F0CF8CF0A428CE8DF0A42E1F
:02010500FE22D8
:10010700BC000BBE0029EF8DF084FFADF022E4CCDC
:10011700F875F008EF2FFFEE33FEEC33FCEE9DECA5
:10012700984005FCEE9DFE0FD5F0E9E4CEFD22EDEB
:10013700F8F5F0EE8420D21CFEADF075F008EF2F35
:10014700FFED33FD4007985006D5F0F222C398FD26
:050157000FD5F0EA22C3
:100BF000C2D5E830E70FB2D5E4C39BFBE49AFAE430
:100C000099F9E498F8EC30E717B2D5120C261202E5
:100C10005DE4C39BFBE49AFAE499F9E498F8800355
:100C200012025D30D50DE4C39FFFE49EFEE49DFDFE
:040C3000E49CFC2222
:10015C00EB9FF5F0EA9E42F0E99D42F0E89C45F0F9
:01016C002270
:10016D00BB010DE58229F582E5833AF5830202FB99
:10017D005007E92582F80202EFBBFE07E92582F858
:10018D00020307E58229F582E5833AF5830203131D
:10019D00BB010789828A830203655005E9F80203D2
:0A01AD0059BBFE05E9F802037122B8
:1001B700BB010DE58229F582E5833AF583020365E4
:1001C7005007E92582F8020359BBFE07E92582F8A3
:0401D700020371228C
:1001DB00BB010789828A830203305005E9F80203C9
:1001EB0023BBFE05E9F802033C89828A830203499B
:1001FB00D083D082F8E4937012740193700DA3A393
:10020B0093F8740193F5828883E4737402936860A6
:06021B00EFA3A3A380DFA6
:10038D00E5532447F8E605532278443010027847A8
:10039D00E475F00112037D0200262009EB7F2ED2B9
:1003AD00098018EF540F2490D43440D4FF300D0B36
:1003BD00EF24BFB41A0050032461FFE55460021509
:1003CD00540557E5577002055630100D7844E47505
:1003DD00F00112037DEF0200C1020E137403D2105F
:1003ED008003E4C210F5538B448A458946E4F554E5
:1003FD00F556F557E55460077F201203C880F57553
:10040D0055FFC20AC209C20BC20CC20EC20FC211E5
:10041D00120396FF700D3010057F001203D9AF57F0
:10042D00AE5622B4255FC2D5C20D120396FF24D05D
:10043D00B40A00501A75F00A785430D50508B6FF85
:10044D000106C6A426F620D5047002D20C80D9244C
:10045D00CFB41A00EF5004C2E5D20D0205D9D20A6D
:10046D0080C6D20980C0D20B80BCD2D580BAD20E44
:10047D0080B47F201203C8200B077401B5540040CF
:10048D00F112038DFF1203C8020401D211D20F80A5
:10049D009512038DFB12038DFA12038DF94A4B70E1
:1004AD000679AA7A067BFF200B2EE554602A7E0082
:1004BD008E8275830012003F60060EEE655570F05A
:1004CD00C2D5EBC0E0EAC0E0E9C0E0EE120620D0F4
:1004DD00E0F9D0E0FAD0E0FB120026FF60AAEBC0F5
:1004ED00E0EAC0E0E9C0E01203C8D0E02401F9D091
:1004FD00E03400FAD0E0FBE5550460DCD555D98039
:10050D00877BFF7A06791CD20B809C79108002794B
:10051D0008C20FC2118008D2D5790A8004790AC2A7
:10052D00D5E555047002F555E4FAFDFEFF12038D75
:10053D00FC7B08200A1312038DFD7B1030090A1273
:10054D00038DFE12038DFF7B20EC3382D592D550A7
:10055D0013C3E43009069FFFE49EFEE4200A039DC9
:10056D00FDE49CFCE4CBF8C20AEC700CCFCECDCCF4
:10057D00E824F8F870F38017C3EF33FFEE33FEED88
:10058D0033FDEC33FCEB33FB994002FB0FD8E9EB69
:10059D00300A05F8D0E0C448B20AC0E00AEC4D4E6E
:1005AD004F78207B0070C2EAB5550040BCC0E01208
:1005BD000622D0F0D0E0200A04C4C0E0C4B20AC0C4
:1005CD00F01203B1D0F0D5F0EB0204011201FB04DF
:1005DD009E53051858046F4C046B42051C4F05249F
:0F05ED0044052449048443052A55050E46050E8E
:1005FC0045050E4706CA5004732D04772E049A2B1A
:10060C00047B2304982006B32A0433480000049288
:10061C003F3F3F00790AA2D5200C14300E09B910C7
:10062C00020404B9080104A2D5200F0250010420D1
:10063C000B68920BB554005034C0E07F20300C197D
:10064C007F30A20B720F720E500F120679C20BC2C2
:10065C000FC20EC2117F30800F300E03E9C0E012C2
:10066C0003C8300E03D0E0F9D0E0B554CC300E17EF
:10067C007F30B9100C1203C87F58300D077F78807B
:10068C0003B908031203C8300B057F2D0203C87F82
:10069C00202011F87F2B200FF322920B80CF286E95
:1006AC00756C6C2900D20A12038D300AF8C20A78D4
:1006BC005430D50108F60204332D50434958120327
:1006CC008D2403B405004001E49006C5931203B9D0
:0D06DC00743A1203B9D20C755404020518CB
:1002210075F008758200EF2FFFEE33FECD33CDCC94
:1002310033CCC58233C5829BED9AEC99E582984017
:100241000CF582EE9BFEED9AFDEC99FC0FD5F0D6F4
:10025100E4CEFBE4CDFAE4CCF9A88222B800C1B91E
:100261000059BA002DEC8BF084CFCECDFCE5F0CB5C
:10027100F97818EF2FFFEE33FEED33FDEC33FCEB95
:1002810033FB10D703994004EB99FB0FD8E5E4F950
:10029100FA227818EF2FFFEE33FEED33FDEC33FC3D
:1002A100C933C910D7059BE99A4007EC9BFCE99A31
:1002B100F90FD8E0E4C9FAE4CCFB2275F010EF2F76
:1002C100FFEE33FEED33FDCC33CCC833C810D70776
:1002D1009BEC9AE899400AED9BFDEC9AFCE899F8B1
:0E02E1000FD5F0DAE4CDFBE4CCFAE4C8F92244
:0C02EF00E6FC08E6FD08E6FE08E6FF223B
:0C02FB00E0FCA3E0FDA3E0FEA3E0FF2276
:0C030700E2FC08E2FD08E2FE08E2FF2232
:10031300E493FC740193FD740293FE740393FF2230
:0D032300E6FB08E6F908E6FA08E6CBF8224A
:0C033000E0F8A3E0F9A3E0FAA3E0FB2250
:0D033C00E2FB08E2F908E2FA08E2CBF82241
:10034900E493F8740193F9740293FA740393FB220A
:0C035900ECF608EDF608EEF608EFF622D0
:0C036500ECF0A3EDF0A3EEF0A3EFF0220B
:0C037100ECF208EDF208EEF208EFF222C8
:10037D00FAE6FB0808E6F925F0F618E6CA3AF62281
:00000001FF
